0114010010999991990010100004+70933-008667FM-12+0009ENJA V0201901N00151004201CN0030001N9+99999+99999101721ADDAA106005091AG10001AY171061AY221061GF108991081071004501999999MD1110011+9999MW1731OA149900211REMSYN011333   91104
0088010010999991990010103004+70933-008667FM-12+0009ENJA V0201601N00051000301CN0002001N9-00051-00061101651ADDAG12000AY171031AY241031GA1091+999999999GF109991091999999999999999MD1110051+9999MW1101
0149010010999991990010106004+70933-008667FM-12+0009ENJA V0209991C00001000151CN0001001N9-00031-00041101621ADDAA199005091AG10000AY171061AY241061GA1091+999999999GF109991091999999999999999KA1120N-00101MD1710031+9999MW1471OA149900211REMSYN017333   21010 91104
0088010010999991990010109004+70933-008667FM-12+0009ENJA V0200901N00101000151CN0000001N9-00031-00041101601ADDAG12000AY141031AY241031GA1091+999999999GF109991091999999999999999MD1710021+9999MW1451
0150010010999991990010112004+70933-008667FM-12+0009ENJA V0209991C00001000151CN0001001N9+00041+00031101631ADDAA106000191AG10000AY151061AY241061GA1091+999999999GF109991091999999999999999MD1310031+9999MW1451OA149900101SA1-0059REMSYN023222// 01005 333   91102
0088010010999991990010115004+70933-008667FM-12+0009ENJA V0209991C00001000151CN0000001N9+00021+00011101641ADDAG12000AY141031AY241031GA1091+999999999GF109991091999999999999999MD1010011+9999MW1451
0149010010999991990010118004+70933-008667FM-12+0009ENJA V0209991V00151002401CN0030001N9+00061+00051101601ADDAA199000391AG10000AY151061AY241061GA1091+999999999GF109991091999999999999999KA1120M+00071MD1810041+9999MW1451OA149900151REMSYN017333   10007 91103
0050010010999991990010121004+70933-008667FM-12+0009ENJA V0209991V00051024001CN0150001N9+00041+00031101631ADDAG12000GF107991041051004501051999MD1310031+9999
0114010010999991990010200004+70933-008667FM-12+0009ENJA V0201901N00101004201CN0100001N9+00111+00101101591ADDAA106000091AG14000AY121061AY221061GF108991081061004501999999MD1810041+9999MW1101OA149900311REMSYN011333   91106
0072010010999991990010203004+70933-008667FM-12+0009ENJA V0203301N001519999999N0100001N9+00041+00031101501ADDAG12000AY121031AY221031GF108991999999002501999999MD1710091+9999MW1101
0111010010999991990010206004+70933-008667FM-12+0009ENJA V0209991C00001004201CN0150001N9+00001-00011101421ADDAA106000091AG14000GF108991081061004501999999KA1120N+00001MD1710081+9999OA149900411REMSYN017333   20000 91108
0083010010999991990010212004+70933-008667FM-12+0009ENJA V0201601N00311002101CN0030001N9+99999+99999101241ADDAA106000091AG10000AY141061AY221061GF108991081061002501999999MD1710091+9999MW1441
0072010010999991990010215004+70933-008667FM-12+0009ENJA V0201101N00821001201CN0010001N9+00081+00071101011ADDAG12001AY151031AY241031GF108991081061001501999999MD1710231+9999MW1591
0149010010999991990010218004+70933-008667FM-12+0009ENJA V0201701N00311000301CN0005001N9-00021-00031100921ADDAA199003091AG10000AY161061AY251061GA1091+999999999GF109991091999999999999999KA1120M+00221MD1610091+9999MW1601OA149901131REMSYN017333   10022 91122
0088010010999991990010221004+70933-008667FM-12+0009ENJA V0201301N00461000301CN0005001N9+00011+00001100831ADDAG12000AY161031AY241031GA1091+999999999GF109991091999999999999999MD1710091+9999MW1451
0114010010999991990010300004+70933-008667FM-12+0009ENJA V0201901N00261000601CN0020001N9+00041+00031100681ADDAA106002091AG10000AY161061AY241061GF108991081061000751999999MD1710151+9999MW1101OA149900621REMSYN011333   91112
0072010010999991990010303004+70933-008667FM-12+0009ENJA V0202001N00211001201CN0050001N9+00041+00031100351ADDAG12000AY121031AY221031GF108991081061001501999999MD1810331+9999MW1581
0133010010999991990010306004+70933-008667FM-12+0009ENJA V0202801N00261024001CN0050001N9+00031+00021100011ADDAA199004091AG10001AY161061AY251061GF108991031071002501021999KA1120N-00021MD1610341+9999MW1681OA149900771REMSYN017333   21002 91115
0088010010999991990010309004+70933-008667FM-12+0009ENJA V0202901N01851001201CN0020001N9-00221-00301100091ADDAG12000AY171031AY261031GA1091+999999999GF109991091999999999999999MD1310081+9999MW1701
0134010010999991990010312004+70933-008667FM-12+0009ENJA V0202401N00461220001CN0600001N9-00181-00281100521ADDAA106002091AG10000AY171061AY261061GF102991011061004501031011MD1210431+9999MW1021OA149902471SA1-0099REMSYN023222// 01009 333   91148
0050010010999991990010315004+70933-008667FM-12+0009ENJA V0200101N00051004201CN0500001N9-00311-00381100611ADDAG12000GF106991051061004501031011MD1110091+9999
0120010010999991990010318004+70933-008667FM-12+0009ENJA V0200601N00261060001CN0300001N9-00231-00371100601ADDAA199002091AG10000AY121061AY211061GF105991011061004501041011MD1810011+9999MW1021OA149900671REMSYN017333   18003 91113
0091010010999991990010321004+70933-008667FM-12+0009ENJA V0202101N00211001201CN0020001N9-00141-00151100641ADDAG12000AY121031AY221031GF108991999061001501031999MD1310041+9999MW1401EQDQ01+000082SCOTLC
0130010010999991990010400004+70933-008667FM-12+0009ENJA V0202001N00151000301CN0005001N9+99999+99999100591ADDAA106000091AG14000AY141061AY221061GA1091+999999999GF109991091999999999999999MD1710051+9999MW1471OA149900571REMSYN011333   91111
0088010010999991990010403004+70933-008667FM-12+0009ENJA V0209991C00001000301CN0005001N9-00141-00151100501ADDAG12000AY171031AY241031GA1091+999999999GF109991091999999999999999MD1710091+9999MW1701
0133010010999991990010406004+70933-008667FM-12+0009ENJA V0209991C00001002101CN0030001N9-00091-00101100381ADDAA199001091AG10000AY171061AY241061GF108991081061002501999999KA1120N-00291MD1710121+9999MW1101OA149900311REMSYN017333   21029 91106
0088010010999991990010409004+70933-008667FM-12+0009ENJA V0202001N00101000301CN0003001N9-00091-00101100381ADDAG12000AY141031AY221031GA1091+999999999GF109991091999999999999999MD1410001+9999MW1451
0150010010999991990010412004+70933-008667FM-12+0009ENJA V0201801N00101000301CN0003001N9-00121-00131100311ADDAA106000191AG10000AY151061AY241061GA1091+999999999GF109991091999999999999999MD1810071+9999MW1451OA149900311SA1-0109REMSYN023222// 01010 333   91106
0088010010999991990010415004+70933-008667FM-12+0009ENJA V0209991C00001000601CN0008001N9-00091-00101100291ADDAG12000AY151031AY241031GA1091+999999999GF109991091999999999999999MD1710021+9999MW1511
0149010010999991990010418004+70933-008667FM-12+0009ENJA V0200901N00211000301CN0005001N9-00021-00031100101ADDAA199001091AG10000AY151061AY241061GA1091+999999999GF109991091999999999999999KA1120M-00011MD1710191+9999MW1501OA149900211REMSYN017333   11001 91104
0088010010999991990010421004+70933-008667FM-12+0009ENJA V0209999999999000301CN0005001N9-00011-00021099951ADDAG12000AY151031AY241031GA1091+999999999GF109991091999999999999999MD1710151+9999MW1511
0124010010999991990010500004+70933-008667FM-12+0009ENJA V0209991C00001000301CN0002001N9+99999+99999099781ADDAA106005091AG10000AY161061AY251061GA1091+999999999GF109991091999999999999999MD1710171+9999OA149900261REMSYN011333   91105
0088010010999991990010503004+70933-008667FM-12+0009ENJA V0202101N00621000301CN0005001N9+00021+00011099531ADDAG12000AY161031AY251031GA1091+999999999GF109991091999999999999999MD1810241+9999MW1511
0149010010999991990010506004+70933-008667FM-12+0009ENJA V0202101N00261000301CN0005001N9+00021+00011099311ADDAA199007091AG10000AY161061AY251061GA1091+999999999GF109991091999999999999999KA1120N-00131MD1710221+9999MW1601OA149901391REMSYN017333   21013 91127
0088010010999991990010509004+70933-008667FM-12+0009ENJA V0202101N00411000301CN0005001N9-00021-00031099321ADDAG12000AY161031AY251031GA1091+999999999GF109991091999999999999999MD1510001+9999MW1501
0134010010999991990010512004+70933-008667FM-12+0009ENJA V0200901N003619999999N0020001N9-00051-00061099231ADDAA106000391AG10000AY151061AY241061GF108991081061999999999999MD1310011+9999MW1101OA149901081SA1-0099REMSYN023222// 01009 333   91121
0152010010999991990010518004+70933-008667FM-12+0009ENJA V0201001N00311220001CN0300001N9-00111-00251099411ADDAA199000391AG19000AY121061AY201061GF101991001001999999001081KA1120M+00101MD1210031+9999MW1011OA149900721REMSYN017333   10010 91114EQDQ01+000012SCOTLC
0091010010999991990010521004+70933-008667FM-12+0009ENJA V0202101N00571220001CN0030001N9-00211-00221099571ADDAG12000AY101031AY201031GF101991001001999999001081MD1310161+9999MW1101EQDQ01+000012SCOTLC
0072010010999991990010603004+70933-008667FM-12+0009ENJA V0201901N00511001201CN0035001N9+99999+99999099581ADDAG12000AY151031AY241031GF108991081061001501999999MD1810061+9999MW1451
0133010010999991990010606004+70933-008667FM-12+0009ENJA V0209991V00101002101CN0040001N9+99999+99999099391ADDAA199000191AG10000AY171061AY241061GF108991081061002501999999KA1120N-00221MD1710191+9999MW1701OA149900821REMSYN017333   21022 91116
0072010010999991990010609004+70933-008667FM-12+0009ENJA V0202101N00311001201CN0030001N9+00031+00021099231ADDAG12001AY171031AY221031GF108991081071001501999999MD1710151+9999MW1611
0150010010999991990010612004+70933-008667FM-12+0009ENJA V0202101N00361000301CN0002001N9+00071+00061099111ADDAA106005091AG10000AY171061AY261061GA1091+999999999GF109991091999999999999999MD1610121+9999MW1471OA149901131SA1-0099REMSYN023222// 01009 333   91122
0088010010999991990010615004+70933-008667FM-12+0009ENJA V0209991C00001000301CN0002001N9+00001-00011098801ADDAG12000AY151031AY241031GA1091+999999999GF109991091999999999999999MD1810311+9999MW1451
0133010010999991990010618004+70933-008667FM-12+0009ENJA V0201001N00771001201CN0035001N9+00081+00071098341ADDAA199005091AG10001AY161061AY251061GF108991081071001501999999KA1120M+00121MD1710461+9999MW1611OA149901081REMSYN017333   10012 91121
0072010010999991990010621004+70933-008667FM-12+0009ENJA V0200901N00621004201CN0050001N9+00071+00061097991ADDAG12001AY171031AY261031GF108991081071004501999999MD1710351+9999MW1631
0130010010999991990010700004+70933-008667FM-12+0009ENJA V0201801N00151000301CN0003001N9-00031-00041097851ADDAA106005091AG10000AY171061AY261061GA1091+999999999GF109991091999999999999999MD1710151+9999MW1471OA149901031REMSYN011333   91120
0088010010999991990010703004+70933-008667FM-12+0009ENJA V0209991C00001000301CN0002001N9-00071-00081097781ADDAG11000AY141031AY241031GA1091+999999999GF109991091999999999999999MD1610071+9999MW1451
0149010010999991990010706004+70933-008667FM-12+0009ENJA V0202101N00511000301CN0004001N9-00081-00091097801ADDAA199005091AG10000AY141061AY241061GA1091+999999999GF109991091999999999999999KA1120N-00091MD1310021+9999MW1451OA149900621REMSYN017333   21009 91112
0072010010999991990010709004+70933-008667FM-12+0009ENJA V0202101N00511001201CN0035001N9-00141-00151097911ADDAG12000AY151031AY241031GF108991081071001501999999MD1210111+9999MW1501
0072010010999991990010715004+70933-008667FM-12+0009ENJA V0202001N00721001201CN0070001N9-00151-00161098021ADDAG12000AY171031AY241031GF108991081071001501999999MD1210031+9999MW1231
0133010010999991990010718004+70933-008667FM-12+0009ENJA V0201901N00361002101CN0080001N9-00131-00141097991ADDAA199001091AG10000AY171061AY251061GF107991051071002501061999KA1120M-00081MD1810031+9999MW1021OA149901181REMSYN017333   11008 91123
0050010010999991990010721004+70933-008667FM-12+0009ENJA V0201701N00151024001CN0100001N9-00121-00131097971ADDAG12000GF108991041061004501071999MD1610021+9999
0092010010999991990010800004+70933-008667FM-12+0009ENJA V0203001N00101004201CN0250001N9-00081-00091097931ADDAA106000091AG14000GF108991081061004501999999MD1710041+9999OA149900461REMSYN011333   91109
0072010010999991990010803004+70933-008667FM-12+0009ENJA V0200301N00151021001CN0600001N9-00041-00121097931ADDAG11000AY121031AY221031GF107991071001022501031999MD1410001+9999MW1401
0133010010999991990010806004+70933-008667FM-12+0009ENJA V0203001N01131015001CN0300001N9-00131-00231098151ADDAA106999929AG10000AY121061AY221061GF108991081081012501999999KA1120N-00141MD1310221+9999MW1701OA149901701REMSYN017333   21014 91133
0072010010999991990010809004+70933-008667FM-12+0009ENJA V0202801N01391012001CN0100001N9-00391-00441098601ADDAG12000AY171031AY231031GF108991081081008001999999MD1210451+9999MW1361
0134010010999991990010812004+70933-008667FM-12+0009ENJA V0202801N01541012001CN0150001N9-00381-00561098901ADDAA106999929AG10000AY181061AY271061GF106991051081008001061999MD1210301+9999MW1361OA149902421SA1-0089REMSYN023222// 01008 333   91147
0050010010999991990010815004+70933-008667FM-12+0009ENJA V0202301N00461007501CN0150001N9-00281-00441099231ADDAG12000GF108991051051008001071999MD1210331+9999
0133010010999991990010818004+70933-008667FM-12+0009ENJA V0202301N00571024001CN0300001N9-00271-00431099261ADDAA199999929AG10000AY131061AY221061GF107991041051008001071999KA1120M-00131MD1110031+9999MW1021OA149902421REMSYN017333   11013 91147
0050010010999991990010821004+70933-008667FM-12+0009ENJA V0201201N00671012001CN0400001N9-00201-00291099141ADDAG12000GF107991071051012501999999MD1810121+9999
0092010010999991990010900004+70933-008667FM-12+0009ENJA V0201101N00821012001CN0400001N9-00131-00231098741ADDAA106000091AG14000GF107991071051012501999999MD1710401+9999OA149901081REMSYN011333   91121
0149010010999991990010906004+70933-008667FM-12+0009ENJA V0200901N01291000301CN0002001N9-00061-00071097711ADDAA199001091AG10001AY181061AY231061GA1091+999999999GF109991091999999999999999KA1120N-00271MD1710361+9999MW1861OA149901851REMSYN017333   21027 91136
0072010010999991990010909004+70933-008667FM-12+0009ENJA V0201101N00411004201CN0030001N9-00041-00051097601ADDAG12000AY181031AY271031GF108991071061004501071999MD1610111+9999MW1101
0134010010999991990010912004+70933-008667FM-12+0009ENJA V0201201N00411220001CN0020001N9-00031-00041097741ADDAA106000391AG10000AY181061AY271061GF101991011061002501031001MD1310241+9999MW1101OA149901901SA1-0089REMSYN023222// 01008 333   91137
0072010010999991990010915004+70933-008667FM-12+0009ENJA V0203501N00101220001CN0010001N9-00051-00061097841ADDAG12000AY101031AY201031GF101991011061002501031001MD1210101+9999MW1401
0111010010999991990010918004+70933-008667FM-12+0009ENJA V0200901N00151012001CN0300001N9+00001-00011097981ADDAA106000091AG14000GF107991071051012501999999KA1120M+00051MD1210141+9999OA149900931REMSYN017333   10005 91118
0050010010999991990010921004+70933-008667FM-12+0009ENJA V0200901N00211007501CN0300001N9+00021+00011098081ADDAG12000GF107991071051008001999999MD1210111+9999
0114010010999991990011000004+70933-008667FM-12+0009ENJA V0200901N00571007501CN0040001N9+00021+00011098171ADDAA106000091AG10000AY121061AY221061GF108991081051008001999999MD1210091+9999MW1101OA149900771REMSYN011333   91115
0072010010999991990011003004+70933-008667FM-12+0009ENJA V0200901N00461024001CN0040001N9+00011+99999098251ADDAG11000AY121031AY211031GF106991031051004501031001MD1210081+9999MW1101
0133010010999991990011006004+70933-008667FM-12+0009ENJA V0200901N00511007501CN0070001N9+00011+99999098251ADDAA106000091AG14000AY121061AY211061GF107991071051008001001001KA1120N-00021MD1010001+9999MW1101OA149900771REMSYN017333   21002 91115
0072010010999991990011009004+70933-008667FM-12+0009ENJA V0200901N00461007501CN0300001N9+99999+99999098291ADDAG12000AY121031AY211031GF107991071051008001001001MD1210031+9999MW1101
0134010010999991990011012004+70933-008667FM-12+0009ENJA V0201401N00511004201CN0040001N9-00061-00071098301ADDAA106999929AG10000AY181061AY221061GF107991071051004501001001MD1210011+9999MW1851OA149900671SA1-0099REMSYN023222// 01009 333   91113
0083010010999991990011014004+70933-008667FM-12+0009ENJA V0201301N005119999999N0040001N9-00131-00141098471ADDAA199000191AG10999AY181021AY271021GF108991999999004501999999MD1310121+9999MW1561
0072010010999991990011015004+70933-008667FM-12+0009ENJA V0201301N00511004201CN0100001N9-00111-00121098351ADDAG12000AY181031AY201031GF107991071051004501001001MD1210051+9999MW1101
0133010010999991990011018004+70933-008667FM-12+0009ENJA V0201301N00511004201CN0040001N9-00131-00141098471ADDAA199000191AG10000AY181061AY271061GF108991081051004501999999KA1120M+00011MD1310121+9999MW1561OA149900771REMSYN017333   10001 91115
0072010010999991990011021004+70933-008667FM-12+0009ENJA V0201201N00411004201CN0050001N9-00121-00131098691ADDAG12000AY151031AY221031GF108991081051004501999999MD1210221+9999MW1101
0114010010999991990011100004+70933-008667FM-12+0009ENJA V0200901N00361024001CN0600001N9-00091-00161098801ADDAA106999929AG10000AY151061AY221061GF108991041051008001071999MD1210111+9999MW1401OA149900621REMSYN011333   91112
0050010010999991990011103004+70933-008667FM-12+0009ENJA V0209991C00001220001CN0300001N9-00081-00221098831ADDAG12000GF102991011011008001031001MD1110031+9999
0111010010999991990011106004+70933-008667FM-12+0009ENJA V0209991V00051024001CN0300001N9-00211-00341098901ADDAA199999929AG10000GF106991011051008001031001KA1120N-00231MD1210071+9999OA149900621REMSYN017333   21023 91112
0072010010999991990011109004+70933-008667FM-12+0009ENJA V0201001N00821004201CN0040001N9-00041-00071099181ADDAG12000AY121031AY221031GF108991081061004501999999MD1310281+9999MW1101
0112010010999991990011112004+70933-008667FM-12+0009ENJA V0201001N00981004201CN0150001N9-00071-00211099501ADDAA106000091AG14000GF107991071051004501999999MD1210321+9999OA149901701SA1-0099REMSYN023222// 01009 333   91133
0050010010999991990011115004+70933-008667FM-12+0009ENJA V0203501N00821060001CN0150001N9-00161-00391099741ADDAG12000GF105991011051008001031081MD1210241+9999
0111010010999991990011118004+70933-008667FM-12+0009ENJA V0202101N00211220001CN0300001N9-00271-00531099981ADDAA199999929AG10000GF104991011051008001031081KA1120M+00041MD1210241+9999OA149901441REMSYN017333   10004 91128
0092010010999991990011200004+70933-008667FM-12+0009ENJA V0203101N00211060001CN0600001N9-00441-00621100231ADDAA106000091AG14000GF105991011051008001001071MD1110101+9999OA149900881REMSYN011333   91117
0111010010999991990011206004+70933-008667FM-12+0009ENJA V0200301N00261024001CN0600001N9-00271-00571099851ADDAA106000091AG14000GF107991041051008001071999KA1120N-00461MD1710301+9999OA149901181REMSYN017333   21046 91123
0050010010999991990011209004+70933-008667FM-12+0009ENJA V0203601N00931007501CN0600001N9-00201-00361099531ADDAG12000GF107991051051008001071999MD1710321+9999
0061010010999991990011212004+70933-008667FM-12+0009ENJA V0200801N01231004201CN0200001N9+00161+00121099101ADDAA106000091AG14000GF107991071051004501999999MD1710431+9999
0072010010999991990011215004+70933-008667FM-12+0009ENJA V0200701N01391002101CN0100001N9+00211+00151098601ADDAG12000AY161031AY251031GF108991081061002501999999MD1710501+9999MW1581
0133010010999991990011218004+70933-008667FM-12+0009ENJA V0200701N01641002101CN0070001N9+00151+00091098161ADDAA199002091AG10001AY171061AY261061GF108991081061002501999999KA1120M+00251MD1710441+9999MW1681OA149902571REMSYN017333   10025 91150
0072010010999991990011221004+70933-008667FM-12+0009ENJA V0200901N01641004201CN0150001N9+00121+00081098091ADDAG12000AY171031AY221031GF108991081061004501999999MD1610071+9999MW1021
0083010010999991990011300004+70933-008667FM-12+0009ENJA V0200601N01131004201CN0150001N9+00131+00091098071ADDAA106001091AG10000AY171061AY221061GF108991081061004501999999MD1710021+9999MW1021
0072010010999991990011303004+70933-008667FM-12+0009ENJA V0200601N01131004201CN0100001N9+00221+00081098011ADDAG12000AY161031AY251031GF108991081061004501999999MD1710061+9999MW1581
0133010010999991990011306004+70933-008667FM-12+0009ENJA V0200101N01131004201CN0100001N9+00021-00011098011ADDAA199002091AG10001AY171061AY251061GF108991081061004501999999KA1120N+00011MD1410001+9999MW1681OA149902321REMSYN017333   20001 91145
0072010010999991990011309004+70933-008667FM-12+0009ENJA V0200101N01291004201CN0100001N9+00011+00001098111ADDAG12001AY171031AY221031GF107991061061004501071999MD1310101+9999MW1681
0134010010999991990011312004+70933-008667FM-12+0009ENJA V0203601N01441004201CN0010001N9+00011+00001098161ADDAA106001091AG10001AY171061AY221061GF108991081051004501999999MD1110051+9999MW1681OA149902261SA1-0089REMSYN023222// 01008 333   91144
0072010010999991990011315004+70933-008667FM-12+0009ENJA V0200201N01391004201CN0030001N9-00011-00021098321ADDAG12001AY171031AY271031GF108991081051004501999999MD1210151+9999MW1681
0133010010999991990011318004+70933-008667FM-12+0009ENJA V0203501N01231002101CN0025001N9-00011-00021098461ADDAA199002091AG10000AY171061AY271061GF107991071051002501999999KA1120M+00041MD1210141+9999MW1771OA149902161REMSYN017333   10004 91142
0072010010999991990011321004+70933-008667FM-12+0009ENJA V0203501N01081002101CN0025001N9-00051-00061098621ADDAG12000AY181031AY271031GF108991081021002501999999MD1210161+9999MW1851
0114010010999991990011400004+70933-008667FM-12+0009ENJA V0203401N01031004201CN0060001N9-00061-00071098771ADDAA106003091AG19000AY181061AY271061GF106991051091004501999999MD1210151+9999MW1851OA149902111REMSYN011333   91141
0072010010999991990011403004+70933-008667FM-12+0009ENJA V0203401N00931002101CN0100001N9-00091-00101098811ADDAG12000AY181031AY221031GF107991071061002501999999MD1110041+9999MW1101
0133010010999991990011406004+70933-008667FM-12+0009ENJA V0203401N00621002101CN0100001N9-00111-00121098871ADDAA199003091AG10000AY121061AY221061GF107991071061002501999999KA1120N-00111MD1210061+9999MW1101OA149901541REMSYN017333   21011 91130
0072010010999991990011409004+70933-008667FM-12+0009ENJA V0203501N00771002101CN0080001N9-00131-00141098821ADDAG12000AY121031AY221031GF108991081061002501999999MD1810051+9999MW1101
0134010010999991990011412004+70933-008667FM-12+0009ENJA V0203501N00621001201CN0080001N9-00141-00151098811ADDAA106000191AG10000AY121061AY221061GF108991081061001501999999MD1710011+9999MW1771OA149901441SA1-0089REMSYN023222// 01008 333   91128
0072010010999991990011415004+70933-008667FM-12+0009ENJA V0203401N00571001201CN0050001N9-00161-00171098731ADDAG12000AY171031AY221031GF108991081061001501999999MD1710081+9999MW1101
0133010010999991990011418004+70933-008667FM-12+0009ENJA V0203401N00621001201CN0080001N9-00181-00191098551ADDAA199000191AG10000AY171061AY221061GF108991081061001501999999KA1120M+00001MD1710161+9999MW1101OA149901181REMSYN017333   11000 91123
0072010010999991990011421004+70933-008667FM-12+0009ENJA V0203401N00511001201CN0100001N9-00191-00201098451ADDAG12000AY181031AY221031GF108991081061001501999999MD1710121+9999MW1101
0114010010999991990011500004+70933-008667FM-12+0009ENJA V0203501N00621001201CN0040001N9-00191-00201098291ADDAA106000191AG19000AY181061AY221061GF108991081061001501999999MD1710161+9999MW1101OA149900981REMSYN011333   91119
0072010010999991990011503004+70933-008667FM-12+0009ENJA V0203501N00571001201CN0060001N9-00191-00201098221ADDAG11000AY121031AY221031GF108991081061001501999999MD1610071+9999MW1101
0133010010999991990011506004+70933-008667FM-12+0009ENJA V0203501N00511001201CN0040001N9-00201-00211098151ADDAA199000591AG10000AY171061AY221061GF108991081061001501999999KA1120N-00201MD1710071+9999MW1701OA149900821REMSYN017333   21020 91116
0072010010999991990011509004+70933-008667FM-12+0009ENJA V0203401N00621001201CN0040001N9-00241-00251098201ADDAG12000AY171031AY221031GF108991081061001501999999MD1310051+9999MW1701
0134010010999991990011512004+70933-008667FM-12+0009ENJA V0203401N00821001201CN0040001N9-00231-00241098201ADDAA106000591AG10000AY181061AY221061GF107991071061001501999999MD1410001+9999MW1851OA149901341SA1-0099REMSYN023222// 01009 333   91126
0072010010999991990011515004+70933-008667FM-12+0009ENJA V0203501N00721001201CN0080001N9-00201-00211098251ADDAG12000AY171031AY221031GF108991081061001501999999MD1210051+9999MW1701
0133010010999991990011518004+70933-008667FM-12+0009ENJA V0203601N00871002101CN0040001N9-00251-00281098321ADDAA199000591AG10000AY171061AY221061GF108991081061002501999999KA1120M-00121MD1210071+9999MW1761OA149901131REMSYN017333   11012 91122
0083010010999991990011600004+70933-008667FM-12+0009ENJA V0203301N00571002101CN0100001N9-00291-00321098501ADDAA106999929AG10000AY171061AY221061GF108991081061002501999999MD1210041+9999MW1701
0072010010999991990011603004+70933-008667FM-12+0009ENJA V0200201N00621004201CN0150001N9-00291-00341098611ADDAG12000AY171031AY221031GF107991071051004501999999MD1210111+9999MW1711
0133010010999991990011606004+70933-008667FM-12+0009ENJA V0200101N00671004201CN0200001N9-00441-00591098741ADDAA199000191AG10000AY171061AY221061GF106991061051004501999999KA1120N-00451MD1210131+9999MW1221OA149901241REMSYN017333   21045 91124
0050010010999991990011609004+70933-008667FM-12+0009ENJA V0203601N00671024001CN0200001N9-00581-00761098951ADDAG12000GF106991031051004501041001MD1310211+9999
0112010010999991990011612004+70933-008667FM-12+0009ENJA V0200101N00671004201CN0200001N9-00621-00831099101ADDAA106000091AG14000GF106991061051004501001001MD1110151+9999OA149901241SA1-0129REMSYN023222// 01012 333   91124
0050010010999991990011615004+70933-008667FM-12+0009ENJA V0200201N00721004201CN0200001N9-00661-00871099201ADDAG12000GF107991061051004501001081MD1010101+9999
0083010010999991990011618004+70933-008667FM-12+0009ENJA V0203601N00821004201CN0200001N9-00691-00931099181ADDAA199999929AG10000AY171061AY221061GF106991051051004501001081MD1810021+9999MW1221
0072010010999991990011621004+70933-008667FM-12+0009ENJA V0201801N00261220001CN0250001N9-00631-00991099241ADDAG12000AY171031AY221031GF104991031051008001001081MD1310061+9999MW1221
0114010010999991990011700004+70933-008667FM-12+0009ENJA V0203401N00771220001CN0300001N9-00631-01031099191ADDAA106999929AG10000AY171061AY221061GF104991021051008001031081MD1710051+9999MW1701OA149901901REMSYN011333   91137
0072010010999991990011703004+70933-008667FM-12+0009ENJA V0200701N01491007501CN0050001N9-00671-00861099081ADDAG12000AY171031AY231031GF105991051051008001031999MD1710111+9999MW1361
0133010010999991990011706004+70933-008667FM-12+0009ENJA V0200201N00671024001CN0070001N9-00691-00951099131ADDAA199000191AG19000AY171061AY231061GF107991041051008001071999KA1120N-00721MD1210051+9999MW1701OA149902161REMSYN017333   21072 91142
0072010010999991990011709004+70933-008667FM-12+0009ENJA V0200101N00931024001CN0100001N9-00691-00781099121ADDAG12000AY171031AY221031GF107991041051004501071999MD1810011+9999MW1711
0083010010999991990011712004+70933-008667FM-12+0009ENJA V0200101N01081004201CN0010001N9-00661-00741099121ADDAA106999929AG10000AY171061AY231061GF107991051051004501031999MD1410001+9999MW1711
0072010010999991990011715004+70933-008667FM-12+0009ENJA V0200101N00981004201CN0010001N9-00591-00651099121ADDAG12000AY171031AY231031GF108991071051004501031999MD1410001+9999MW1701
0133010010999991990011718004+70933-008667FM-12+0009ENJA V0200301N00981004201CN0035001N9-00621-00661099181ADDAA199000391AG19000AY171061AY231061GF108991061051004501071999KA1120M-00571MD1310061+9999MW1701OA149901801REMSYN017333   11057 91135
0088010010999991990011721004+70933-008667FM-12+0009ENJA V0200201N01081000601CN0010001N9-00691-00751099311ADDAG12000AY171031AY231031GA1091+999999999GF109991091999999999999999MD1210131+9999MW1701
0133010010999991990011800004+70933-008667FM-12+0009ENJA V0209999999999004201CN0025001N9-00721+99999099411ADDAA106000191AG10000AY171061AY271061GF108991081051004501999999MD1210101+9999MW1711OA149999999REMSYN011333   91135EQDQ01  01802WGOSPD
0072010010999991990011803004+70933-008667FM-12+0009ENJA V0200101N01031004201CN0025001N9-00811-00891099511ADDAG12000AY171031AY271031GF108991081051004501999999MD1210101+9999MW1711
0133010010999991990011806004+70933-008667FM-12+0009ENJA V0203601N009319999999N0200001N9-00881-01061099551ADDAA106000391AG10000AY171061AY271061GF107991021051004501999999KA1120N-00881MD1110041+9999MW1011OA149901751REMSYN017333   21088 91134
0072010010999991990011809004+70933-008667FM-12+0009ENJA V0203501N00871004201CN0060001N9-00931-01161099701ADDAG12000AY171031AY221031GF107991071051004501999999MD1210151+9999MW1701
0134010010999991990011812004+70933-008667FM-12+0009ENJA V0203501N00981024001CN0100001N9-00901-01151099771ADDAA106000191AG10000AY171061AY221061GF107991041061004501071999MD1110071+9999MW1151OA149901441SA1-0179REMSYN023222// 01017 333   91128
0050010010999991990011815004+70933-008667FM-12+0009ENJA V0203501N00671220001CN0300001N9-00871-01231099831ADDAG12000GF104991031051004501031081MD1110061+9999
0133010010999991990011818004+70933-008667FM-12+0009ENJA V0203601N00671007501CN0035001N9-00841-01021099801ADDAA199000191AG10000AY121061AY221061GF108991071051008001999999KA1120M-00811MD1810031+9999MW1701OA149901241REMSYN017333   11081 91124
0072010010999991990011821004+70933-008667FM-12+0009ENJA V0203501N00821007501CN0150001N9-00921-01161099801ADDAG12000AY171031AY271031GF107991071051008001999999MD1410001+9999MW1711
0114010010999991990011900004+70933-008667FM-12+0009ENJA V0200101N00671007501CN0150001N9-00971-01201099681ADDAA106999929AG10000AY171061AY221061GF107991071051008001999999MD1810121+9999MW1701OA149901131REMSYN011333   91122
0072010010999991990011903004+70933-008667FM-12+0009ENJA V0200201N00721007501CN0150001N9-01011-01231099471ADDAG12000AY171031AY221031GF107991071051008001999999MD1710211+9999MW1701
0133010010999991990011906004+70933-008667FM-12+0009ENJA V0200201N01131220001CN0030001N9-01061-01251099051ADDAA199999929AG10000AY171061AY231061GF104991041051008001001001KA1120N-01071MD1810421+9999MW1701OA149901801REMSYN017333   21107 91135
0072010010999991990011909004+70933-008667FM-12+0009ENJA V0203501N00771012001CN0600001N9-00781-01071098711ADDAG12000AY171031AY221031GF108991061051012501999999MD1710341+9999MW1021
0134010010999991990011912004+70933-008667FM-12+0009ENJA V0203601N01541024001CN0020001N9-00651-00701098301ADDAA106000191AG10000AY171061AY221061GF108991011071004501021999MD1710411+9999MW1711OA149902321SA1-0169REMSYN023222// 01016 333   91145
0072010010999991990011915004+70933-008667FM-12+0009ENJA V0203601N00931024001CN0040001N9-00381-00561098011ADDAG12000AY171031AY271031GF108991041071008001021999MD1710291+9999MW1151
0133010010999991990011918004+70933-008667FM-12+0009ENJA V0200201N01131007501CN0050001N9-00301-00381097851ADDAA199000191AG10000AY171061AY231061GF107991071051008001999999KA1120M-00251MD1610161+9999MW1701OA149902371REMSYN017333   11025 91146
0072010010999991990011921004+70933-008667FM-12+0009ENJA V0203601N01441007501CN0020001N9-00391-00451097851ADDAG12000AY171031AY231031GF107991071051008001999999MD1410001+9999MW1701
0114010010999991990012000004+70933-008667FM-12+0009ENJA V0203601N01441024001CN0040001N9-00311-00341097921ADDAA106000191AG10000AY171061AY231061GF105991021061004501071001MD1310071+9999MW1361OA149902571REMSYN011333   91150
0133010010999991990012006004+70933-008667FM-12+0009ENJA V0203501N01391004201CN0040001N9-00201-00231097791ADDAA199000391AG10000AY171061AY231061GF108991081061004501999999KA1120N-00401MD1710111+9999MW1361OA149902261REMSYN017333   21040 91144
0088010010999991990012009004+70933-008667FM-12+0009ENJA V0203601N01231000301CN0005001N9-00221-00231097791ADDAG12001AY181031AY231031GA1091+999999999GF109991091999999999999999MD1510001+9999MW1861
0134010010999991990012012004+70933-008667FM-12+0009ENJA V0203401N01541004201CN0030001N9-00251-00261097821ADDAA106000591AG10000AY181061AY231061GF108991081061004501999999MD1210031+9999MW1851OA149902421SA1-0169REMSYN023222// 01016 333   91147
0072010010999991990012015004+70933-008667FM-12+0009ENJA V0203401N01031004201CN0030001N9-00131-00141097941ADDAG12000AY171031AY231031GF108991081001004501021999MD1210121+9999MW1701
0133010010999991990012018004+70933-008667FM-12+0009ENJA V0203301N01231004201CN0015001N9-00191-00201098151ADDAA199003091AG10000AY171061AY231061GF108991081061004501999999KA1120M-00131MD1310211+9999MW1701OA149902161REMSYN017333   11013 91142
0072010010999991990012021004+70933-008667FM-12+0009ENJA V0203301N01081004201CN0020001N9-00171-00181098281ADDAG12000AY171031AY231031GF108991081061004501999999MD1110131+9999MW1561
0083010010999991990012100004+70933-008667FM-12+0009ENJA V0203401N00511004201CN0040001N9-00101-00111098581ADDAA106001091AG10000AY171061AY251061GF108991081061004501999999MD1210301+9999MW1561
0072010010999991990012103004+70933-008667FM-12+0009ENJA V0203001N00931004201CN0040001N9-00121-00131098811ADDAG12000AY151031AY241031GF108991081061004501999999MD1210231+9999MW1561
0133010010999991990012106004+70933-008667FM-12+0009ENJA V0203201N00621004201CN0050001N9-00171-00181098921ADDAA199002091AG10000AY151061AY241061GF108991081061004501999999KA1120N-00191MD1210111+9999MW1561OA149901541REMSYN017333   21019 91130
0072010010999991990012109004+70933-008667FM-12+0009ENJA V0202701N00311002101CN0020001N9-00221-00231099261ADDAG12000AY121031AY221031GF108991081061002501999999MD1310341+9999MW1101
0134010010999991990012112004+70933-008667FM-12+0009ENJA V0201201N00211002101CN0100001N9-00221-00231099341ADDAA106001091AG10000AY151061AY221061GF108991081061002501999999MD1110081+9999MW1101OA149901081SA1-0159REMSYN023222// 01015 333   91121
0072010010999991990012115004+70933-008667FM-12+0009ENJA V0201701N00511002101CN0200001N9-00251-00261099191ADDAG12000AY181031AY221031GF108991081061002501999999MD1810151+9999MW1021
0133010010999991990012118004+70933-008667FM-12+0009ENJA V0200901N00671002101CN0040001N9-00131-00141098661ADDAA199001091AG10000AY181061AY221061GF108991081061002501999999KA1120M-00131MD1710531+9999MW1701OA149900821REMSYN017333   11013 91116
0072010010999991990012121004+70933-008667FM-12+0009ENJA V0201401N00511002101CN0040001N9+00071+00061098001ADDAG12000AY151031AY241031GF108991081061002501999999MD1710341+9999MW1501
0130010010999991990012200004+70933-008667FM-12+0009ENJA V0201201N00671001201CN0020001N9+00081+00071097581ADDAA106004091AG10000AY171061AY261061GA1091+999999999GF109991091999999999999999MD1710421+9999MW1601OA149901241REMSYN011333   91124
0072010010999991990012203004+70933-008667FM-12+0009ENJA V0201901N00671004201CN0045001N9-00021-00031097441ADDAG12000AY171031AY261031GF108991081061004501999999MD1510151+9999MW1701
0133010010999991990012206004+70933-008667FM-12+0009ENJA V0202101N00571024001CN0150001N9+00001-00011097631ADDAA199007091AG10000AY171061AY261061GF106991031061004501071999KA1120N-00131MD1210201+9999MW1021OA149901801REMSYN017333   21013 91135
0050010010999991990012209004+70933-008667FM-12+0009ENJA V0201701N00771220001CN0150001N9+99999+99999097741ADDAG12000GF104991021051008001071999MD1210111+9999
0061010010999991990012212004+70933-008667FM-12+0009ENJA V0201501N00621024001CN0100001N9+00031+00011097751ADDAA106000091AG14000GF105991021061004501071999MD1210011+9999
0072010010999991990012215004+70933-008667FM-12+0009ENJA V0201501N00311002101CN0035001N9+00041+00021097511ADDAG12001AY171031AY241031GF108991081061002501999999MD1810241+9999MW1681
0133010010999991990012218004+70933-008667FM-12+0009ENJA V0201001N00671004201CN0060001N9+00031+00021097281ADDAA199001091AG10000AY171061AY261061GF108991081061004501999999KA1120M+00071MD1710231+9999MW1601OA149901131REMSYN017333   10007 91122
0072010010999991990012221004+70933-008667FM-12+0009ENJA V0200901N00461007501CN0100001N9+00051+00041097031ADDAG12000AY161031AY221031GF108991051061008001071999MD1710251+9999MW1021
0130010010999991990012300004+70933-008667FM-12+0009ENJA V0201801N00101000601CN0008001N9-00011-00021097051ADDAA106999929AG10000AY161061AY221061GA1091+999999999GF109991091999999999999999MD1310011+9999MW1461OA149901081REMSYN011333   91121
0072010010999991990012303004+70933-008667FM-12+0009ENJA V0202201N00931004201CN0200001N9-00041-00151097741ADDAG12000AY181031AY241031GF106991061021004501999999MD1210691+9999MW1261
0133010010999991990012306004+70933-008667FM-12+0009ENJA V0202001N00211002101CN0150001N9-00041-00061098041ADDAA199002091AG10000AY181061AY241061GF106991061021002501999999KA1120N-00071MD1110301+9999MW1021OA149902061REMSYN017333   21007 91140
0072010010999991990012309004+70933-008667FM-12+0009ENJA V0209991C00001009001CN0030001N9-00071-00081098121ADDAG12000AY121031AY221031GF108991071081004501999999MD1110081+9999MW1101
0112010010999991990012312004+70933-008667FM-12+0009ENJA V0200801N00621024001CN0100001N9+00091+00081097981ADDAA106000091AG14000GF108991041061004501071999MD1810141+9999OA149900771SA1-0129REMSYN023222// 01012 333   91115
0050010010999991990012315004+70933-008667FM-12+0009ENJA V0200801N00931004201CN0100001N9+00181+00171097731ADDAG12000GF108991051051004501071999MD1710251+9999
0111010010999991990012318004+70933-008667FM-12+0009ENJA V0200801N013919999999N0200001N9+00241+00181097441ADDAA106000091AG14000GF108991021051004501999999KA1120M+00241MD1710291+9999OA149902061REMSYN017333   10024 91140
0050010010999991990012321004+70933-008667FM-12+0009ENJA V0200901N01751024001CN0200001N9+00281+00151097231ADDAG12000GF108991031051008001021999MD1710211+9999
0114010010999991990012400004+70933-008667FM-12+0009ENJA V0200901N01901007501CN0150001N9+00301+00121097091ADDAA106000191AG10000AY161061AY221061GF108991071051008001999999MD1710141+9999MW1211OA149902991REMSYN011333   91158
0072010010999991990012403004+70933-008667FM-12+0009ENJA V0200901N01701007501CN0100001N9+00231+00101097111ADDAG12000AY161031AY221031GF108991071051008001999999MD1310021+9999MW1211
0133010010999991990012406004+70933-008667FM-12+0009ENJA V0200801N01591007501CN0100001N9+00201+00131097161ADDAA199001091AG10000AY161061AY221061GF108991071051008001999999KA1120N+00191MD1210051+9999MW1601OA149902881REMSYN017333   20019 91156
0072010010999991990012409004+70933-008667FM-12+0009ENJA V0200801N01641004201CN0030001N9+00081+00051097231ADDAG12000AY161031AY221031GF108991071061004501999999MD1210071+9999MW1601
0072010010999991990012415004+70933-008667FM-12+0009ENJA V0201201N00051220001CN0100001N9-00041-00051097641ADDAG12000AY171031AY221031GF103991021021004501061999MD1210131+9999MW1101
0133010010999991990012418004+70933-008667FM-12+0009ENJA V0200801N00211007501CN0100001N9+99999+99999097731ADDAA199002091AG19000AY171061AY221061GF106991061051008001999999KA1120M+00211MD1110101+9999MW1101OA149900821REMSYN017333   10021 91116
0114010010999991990012500004+70933-008667FM-12+0009ENJA V0202301N00211220001CN0040001N9-00061-00071097881ADDAA106000091AG14000AY121061AY211061GF104991041061004501001001MD1510001+9999MW1101OA149901291REMSYN011333   91125
0072010010999991990012503004+70933-008667FM-12+0009ENJA V0202101N00261007501CN9999999N9-00041-00051097851ADDAG12000AY121031AY221031GF108991081051008001999999MD1810031+9999MW1101
0111010010999991990012506004+70933-008667FM-12+0009ENJA V0200101N00671024001CN0150001N9-00031-00071097831ADDAA106000091AG14000GF108991041051008001071999KA1120N-00131MD1710021+9999OA149901131REMSYN017333   21013 91122
0072010010999991990012509004+70933-008667FM-12+0009ENJA V0200201N00821004201CN0050001N9+00101-00061097841ADDAG12000AY171031AY221031GF108991071051004501071999MD1310021+9999MW1701
0134010010999991990012512004+70933-008667FM-12+0009ENJA V0200301N00981004201CN0050001N9+00001-00081097851ADDAA106999929AG10000AY171061AY221061GF108991071061004501999999MD1110011+9999MW1701OA149902061SA1-0099REMSYN023222// 01009 333   91140
0072010010999991990012515004+70933-008667FM-12+0009ENJA V0200601N01701004201CN0100001N9+00091-00121097871ADDAG12000AY171031AY221031GF108991071061004501999999MD1210021+9999MW1101
0133010010999991990012518004+70933-008667FM-12+0009ENJA V0200201N01181004201CN0050001N9-00021-00101098151ADDAA199000191AG10000AY171061AY221061GF107991071061004501001001KA1120M+00181MD1310271+9999MW1781OA149902471REMSYN017333   10018 91148
0072010010999991990012521004+70933-008667FM-12+0009ENJA V0200301N01641004201CN0020001N9-00111-00151098271ADDAG12000AY171031AY231031GF108991081061004501999999MD1110121+9999MW1701
0083010010999991990012600004+70933-008667FM-12+0009ENJA V0200201N01591004201CN0010001N9-00161-00171098271ADDAA106000391AG10000AY171061AY231061GF108991081061004501999999MD1410001+9999MW1701
0072010010999991990012603004+70933-008667FM-12+0009ENJA V0200301N02061002101CN0010001N9-00151-00161098101ADDAG12000AY171031AY231031GF108991081061002501999999MD1810171+9999MW1701
0133010010999991990012606004+70933-008667FM-12+0009ENJA V0200301N01441004201CN9999999N9-00081-00091098121ADDAA199000591AG10000AY171061AY231061GF107991071061004501999999KA1120N-00171MD1310021+9999MW1701OA149902991REMSYN017333   21017 91158
0072010010999991990012609004+70933-008667FM-12+0009ENJA V0200401N00931004201CN0200001N9+00051-00021098271ADDAG12000AY171031AY231031GF107991071061004501999999MD1210161+9999MW1021
0134010010999991990012612004+70933-008667FM-12+0009ENJA V0200601N01541004201CN0100001N9+00051-00141098521ADDAA106001091AG10000AY171061AY231061GF106991051061004501001081MD1310251+9999MW1101OA149902631SA1-0109REMSYN023222// 01010 333   91151
0072010010999991990012615004+70933-008667FM-12+0009ENJA V0200601N00931004201CN0100001N9+00051-00221098731ADDAG12000AY121031AY221031GF107991051051004501071999MD1210211+9999MW1101
0133010010999991990012618004+70933-008667FM-12+0009ENJA V0200301N01491004201CN0100001N9-00081-00141098981ADDAA199001091AG13000AY131061AY221061GF107991051051004501071999KA1120M+00091MD1210251+9999MW1361OA149902831REMSYN017333   10009 91155
0072010010999991990012621004+70933-008667FM-12+0009ENJA V0200601N00931004201CN0100001N9+00051-00221098731ADDAG12000AY121031AY221031GF107991051051004501071999MD1210211+9999MW1101
0092010010999991990012700004+70933-008667FM-12+0009ENJA V0200301N00821220001CN0200001N9+00011-00381099311ADDAA106000091AG14000GF104991031051008001071999MD1210161+9999OA149902571REMSYN011333   91150
0153010010999991990012703004+70933-008667FM-12+0009ENJA V0209999999999220001CN0200001N9+99999+99999999999ADDAG12000GA1011+006009059GF104991999051008001001001MD1810121+9999REMSYN011333   81620EQDQ01+000012SCOTLCQ02+025923ATOT  Q03+025413ATOD  Q04+101073APOSLP
0111010010999991990012706004+70933-008667FM-12+0009ENJA V0203601N01081220001CN0200001N9-00171-00571099691ADDAA106000091AG14000GF103991021051008001071999KA1120N-00191MD1210131+9999OA149902061REMSYN017333   21019 91140
0050010010999991990012709004+70933-008667FM-12+0009ENJA V0200301N01181220001CN0250001N9-00221-00521099811ADDAG12000GF103991021051008001071999MD1210121+9999
0061010010999991990012712004+70933-008667FM-12+0009ENJA V0203501N00511024001CN0250001N9-00181-00501099881ADDAA106000091AG14000GF106991031051008001071051MD1210071+9999
0050010010999991990012715004+70933-008667FM-12+0009ENJA V0203301N00621024001CN0150001N9-00171-00501099881ADDAG12000GF106991031051008001071001MD1410001+9999
0111010010999991990012718004+70933-008667FM-12+0009ENJA V0203201N00511002101CN0200001N9-00181-00511099891ADDAA106000091AG14000GF108991071051002501999999KA1120M-00151MD1210011+9999OA149901751REMSYN017333   11015 91134
0072010010999991990012721004+70933-008667FM-12+0009ENJA V0200201N00771004201CN0150001N9-00251-00451099901ADDAG12000AY171031AY221031GF108991081051004501999999MD1210011+9999MW1781
0114010010999991990012800004+70933-008667FM-12+0009ENJA V0200201N01181024001CN0150001N9-00361-00511099821ADDAA106999929AG10000AY171061AY231061GF108991031061004501071999MD1810081+9999MW1781OA149902111REMSYN011333   91141
0072010010999991990012803004+70933-008667FM-12+0009ENJA V0200101N01541002101CN0020001N9-00431-00461099721ADDAG12000AY171031AY231031GF108991081061002501999999MD1710101+9999MW1381
0133010010999991990012806004+70933-008667FM-12+0009ENJA V0200201N01181007501CN0040001N9-00371-00471099551ADDAA199000391AG10000AY171061AY231061GF108991081061008001999999KA1120N-00451MD1710171+9999MW1381OA149902631REMSYN017333   21045 91151
0072010010999991990012809004+70933-008667FM-12+0009ENJA V0200101N01751002101CN0040001N9-00351-00391099451ADDAG12000AY131031AY221031GF106991061051002501071001MD1710101+9999MW1381
0111010010999991990012812004+70933-008667FM-12+0009ENJA V0200101N01231024001CN0500001N9-00231-00451099381ADDAA106000091AG14000AY131061AY221061GF106991041081008001071051MD1610071+9999MW1021SA1-0119REMSYN011222// 01011
0050010010999991990012815004+70933-008667FM-12+0009ENJA V0200201N01131004201CN0500001N9-00281-00331099401ADDAG12000GF107991051051004501041051MD1210021+9999
0133010010999991990012818004+70933-008667FM-12+0009ENJA V0200101N00981024001CN0500001N9-00271-00341099431ADDAA106000091AG14000AY131061AY221061GF107991021051004501071001KA1120M-00201MD1210031+9999MW1361OA149901851REMSYN017333   11020 91136
0072010010999991990012821004+70933-008667FM-12+0009ENJA V0200201N01391009001CN0020001N9-00341-00351099421ADDAG12000AY181031AY231031GF108991081081004501999999MD1810011+9999MW1851
0114010010999991990012900004+70933-008667FM-12+0009ENJA V0200101N01131012001CN0010001N9-00321-00331099481ADDAA106001091AG10000AY181061AY231061GF108991081081008001999999MD1310061+9999MW1851OA149902061REMSYN011333   91140
0072010010999991990012903004+70933-008667FM-12+0009ENJA V0203601N01231012001CN0030001N9-00281-00291099451ADDAG12000AY181031AY231031GF108991081081008001999999MD1810031+9999MW1851
0149010010999991990012906004+70933-008667FM-12+0009ENJA V0203601N01131000601CN0010001N9-00261-00271099451ADDAA199002091AG10000AY181061AY231061GA1091+999999999GF109991091999999999999999KA1120N-00351MD1410001+9999MW1851OA149901701REMSYN017333   21035 91133
0072010010999991990012909004+70933-008667FM-12+0009ENJA V0200101N00981012001CN0070001N9-00231-00241099501ADDAG12000AY181031AY231031GF108991081081008001999999MD1310051+9999MW1851
0134010010999991990012912004+70933-008667FM-12+0009ENJA V0200101N01031012001CN0150001N9-00181-00191099511ADDAA106000391AG10000AY181061AY231061GF108991071081008001041999MD1310011+9999MW1361OA149901601SA1-0119REMSYN023222// 01011 333   91131
0072010010999991990012915004+70933-008667FM-12+0009ENJA V0200101N00671012001CN0200001N9-00061-00101099501ADDAG12000AY181031AY231031GF107991061081008001071001MD1810011+9999MW1021
0111010010999991990012918004+70933-008667FM-12+0009ENJA V0200101N00511007501CN0200001N9+00001-00171099491ADDAA199001091AG10000GF107991061051008001999999KA1120M+00011MD1710011+9999OA149901601REMSYN017333   10001 91131
0050010010999991990012921004+70933-008667FM-12+0009ENJA V0200501N00261007501CN0300001N9+00101-00271099531ADDAG12000GF108991071051008001999999MD1210041+9999
0114010010999991990013000004+70933-008667FM-12+0009ENJA V0200701N00461012001CN0300001N9+00051-00111099501ADDAA106000191AG10000AY171061AY221061GF108991081051012501999999MD1810021+9999MW1021OA149900721REMSYN011333   91114
0050010010999991990013003004+70933-008667FM-12+0009ENJA V0200701N00461220001CN0300001N9+00051-00111099491ADDAG12000GF104991041051012501001001MD1710011+9999
0111010010999991990013006004+70933-008667FM-12+0009ENJA V0200801N00511012001CN0300001N9+00071-00271099431ADDAA199000191AG10000GF108991081051012501999999KA1120N-00011MD1810061+9999OA149901031REMSYN017333   21001 91120
0050010010999991990013009004+70933-008667FM-12+0009ENJA V0200701N00871012001CN0300001N9+00121-00201099391ADDAG12000GF107991071051012501999999MD1710041+9999
0061010010999991990013012004+70933-008667FM-12+0009ENJA V0200801N00571012001CN0300001N9+00111-00211099351ADDAA106000091AG14000GF107991061051012501071999MD1710041+9999
0050010010999991990013015004+70933-008667FM-12+0009ENJA V0200801N00771007501CN0200001N9+00101-00171099221ADDAG12000GF107991061051008001071999MD1710131+9999
0111010010999991990013018004+70933-008667FM-12+0009ENJA V0200801N00981007501CN0200001N9+00101-00111099141ADDAA106000091AG14000GF108991061051008001071999KA1120M+00131MD1710081+9999OA149901291REMSYN017333   10013 91125
0050010010999991990013021004+70933-008667FM-12+0009ENJA V0200801N00771012001CN0200001N9+00131+00061099091ADDAG12000GF108991081051012501999999MD1710051+9999
0061010010999991990013100004+70933-008667FM-12+0009ENJA V0200801N00981012001CN0250001N9+00111-00061099021ADDAA106000091AG14000GF106991061051012501001001MD1710071+9999
0050010010999991990013103004+70933-008667FM-12+0009ENJA V0200801N01031007501CN0250001N9+00131-00061098911ADDAG12000GF107991071051008001001001MD1710111+9999
0111010010999991990013106004+70933-008667FM-12+0009ENJA V0200901N01291007501CN0250001N9+00141-00091098821ADDAA106000091AG14000GF108991071051008001071999KA1120N+00011MD1710091+9999OA149901751REMSYN017333   20001 91134
0072010010999991990013109004+70933-008667FM-12+0009ENJA V0200801N00931007501CN0100001N9+00101-00031098761ADDAG12000AY121031AY221031GF108991081051008001999999MD1710061+9999MW1101
0134010010999991990013112004+70933-008667FM-12+0009ENJA V0200801N00931004201CN0050001N9+00111-00011098701ADDAA106000191AG10000AY121061AY221061GF108991051061004501021999MD1710061+9999MW1681OA149901751SA1-0049REMSYN023222// 01004 333   91134
0072010010999991990013115004+70933-008667FM-12+0009ENJA V0200801N00871004201CN0050001N9+00101+00071098591ADDAG12000AY171031AY251031GF108991081061004501999999MD1710111+9999MW1511
0133010010999991990013118004+70933-008667FM-12+0009ENJA V0200801N00821004201CN0050001N9+00121+00091098531ADDAA199000391AG10001AY171061AY261061GF108991081061004501999999KA1120M+00181MD1710061+9999MW1611OA149901341REMSYN017333   10018 91126
0072010010999991990013121004+70933-008667FM-12+0009ENJA V0200801N00821004201CN0050001N9+00101+00061098431ADDAG12000AY171031AY261031GF108991081061004501999999MD1710101+9999MW1511
0083010010999991990020100004+70933-008667FM-12+0009ENJA V0200801N00461004201CN0080001N9+00111+00081098281ADDAA106001091AG10000AY161061AY251061GF108991081061004501999999MD1810151+9999MW1101
0072010010999991990020103004+70933-008667FM-12+0009ENJA V0200701N00361004201CN0100001N9+00111+00101098141ADDAG12000AY151031AY221031GF108991081061004501999999MD1710141+9999MW1511
0133010010999991990020106004+70933-008667FM-12+0009ENJA V0203401N00511007501CN0100001N9+00191-00051097841ADDAA199001091AG19000AY151061AY221061GF108991081051008001999999KA1120N+00041MD1710301+9999MW1101OA149901601REMSYN017333   20004 91131
0050010010999991990020109004+70933-008667FM-12+0009ENJA V0200801N00211007501CN0150001N9+00171+00051097741ADDAG12000GF107991071051008001071999MD1710101+9999
0112010010999991990020112004+70933-008667FM-12+0009ENJA V0209991V00261007501CN0150001N9+00111+00081097731ADDAA106000091AG14000GF107991071051008001071999MD1610011+9999OA149900881SA1-0039REMSYN023222// 01003 333   91117
0050010010999991990020115004+70933-008667FM-12+0009ENJA V0202201N00051002101CN9999999N9+00031+00021097681ADDAG12000GF108991061061002501071999MD1710051+9999
0133010010999991990020118004+70933-008667FM-12+0009ENJA V0200701N00051002101CN0050001N9+00111+00101097691ADDAA199999929AG10000AY151061AY221061GF107991071061002501999999KA1120M+00241MD1210011+9999MW1101OA149900511REMSYN017333   10024 91110
0072010010999991990020121004+70933-008667FM-12+0009ENJA V0200701N00261004201CN0070001N9+00141+00131097681ADDAG12000AY121031AY221031GF108991081061004501999999MD1710011+9999MW1101
0114010010999991990020200004+70933-008667FM-12+0009ENJA V0200601N00101004201CN0050001N9+00121+00111097671ADDAA106000591AG10000AY121061AY221061GF108991081071004501999999MD1710011+9999MW1611OA149900771REMSYN011333   91115
0088010010999991990020203004+70933-008667FM-12+0009ENJA V0209991C00001000301CN0003001N9+00061+00051097741ADDAG12000AY161031AY251031GA1091+999999999GF109991091999999999999999MD1310071+9999MW1511
0133010010999991990020206004+70933-008667FM-12+0009ENJA V0201001N00311004201CN0050001N9+00161+00151097671ADDAA199002091AG10001AY161061AY251061GF108991081061004501999999KA1120N+00051MD1810071+9999MW1611OA149900981REMSYN017333   20005 91119
0088010010999991990020209004+70933-008667FM-12+0009ENJA V0201901N00211000601CN0007001N9+00071+00061097821ADDAG12000AY161031AY251031GA1091+999999999GF109991091999999999999999MD1310151+9999MW1531
0134010010999991990020212004+70933-008667FM-12+0009ENJA V0201901N00151001201CN0020001N9+00061+00051097951ADDAA106001091AG10000AY161061AY251061GF108991081061001501999999MD1210131+9999MW1101OA149900771SA1-0039REMSYN023222// 01003 333   91115
0088010010999991990020215004+70933-008667FM-12+0009ENJA V0202001N00311000301CN0004001N9+00051+00041098061ADDAG12000AY161031AY251031GA1091+999999999GF109991091999999999999999MD1110111+9999MW1471
0133010010999991990020218004+70933-008667FM-12+0009ENJA V0202101N00101001201CN0015001N9+00001-00011098101ADDAA199001091AG10000AY161061AY251061GF108991081061001501999999KA1120M+00161MD1110041+9999MW1511OA149900411REMSYN017333   10016 91108
0072010010999991990020221004+70933-008667FM-12+0009ENJA V0209991C00001007501CN0250001N9+00061+00051098081ADDAG12000AY151031AY221031GF108991081061008001999999MD1810021+9999MW1021
0083010010999991990020300004+70933-008667FM-12+0009ENJA V0200201N00261220001CN0250001N9+00031+00021098021ADDAA106000191AG10000AY151061AY211061GF104991041051008001001001MD1710061+9999MW1011
0050010010999991990020303004+70933-008667FM-12+0009ENJA V0209991V00051220001CN0250001N9+00041-00021097911ADDAG12000GF103991031051008001001001MD1710111+9999
0111010010999991990020306004+70933-008667FM-12+0009ENJA V0209991V00211220001CN0250001N9+00181-00011097801ADDAA199000191AG10000GF103991031051008001001001KA1120N-00011MD1710111+9999OA149901031REMSYN017333   21001 91120
0050010010999991990020309004+70933-008667FM-12+0009ENJA V0203601N01131007501CN0250001N9+00071+00061097691ADDAG12000GF107991071051008001001001MD1710111+9999
0134010010999991990020312004+70933-008667FM-12+0009ENJA V0203601N01341002101CN0100001N9-00031-00041097641ADDAA106000191AG10000AY171061AY241061GF108991081061002501999999MD1610061+9999MW1281OA149901961SA1-0059REMSYN023222// 01005 333   91138
0072010010999991990020315004+70933-008667FM-12+0009ENJA V0203501N01131009001CN0020001N9-00051-00061097561ADDAG12000AY181031AY241031GF108991081081004501999999MD1710081+9999MW1851
0133010010999991990020318004+70933-008667FM-12+0009ENJA V0203501N01131009001CN0030001N9-00121-00131097531ADDAA199002091AG10000AY181061AY231061GF107991071081004501999999KA1120M+00251MD1710031+9999MW1851OA149902161REMSYN017333   10025 91142
0088010010999991990020321004+70933-008667FM-12+0009ENJA V0203401N01291000301CN0005001N9-00151-00161097531ADDAG12000AY181031AY231031GA1091+999999999GF109991091999999999999999MD1410001+9999MW1851
0114010010999991990020400004+70933-008667FM-12+0009ENJA V0203601N01181002101CN0020001N9-00141-00151097571ADDAA106003091AG10000AY181061AY231061GF108991081061002501999999MD1310041+9999MW1701OA149901901REMSYN011333   91137
0072010010999991990020403004+70933-008667FM-12+0009ENJA V0203601N01131004201CN0030001N9-00191-00201097641ADDAG12000AY171031AY231031GF108991081061004501999999MD1210071+9999MW1381
0149010010999991990020406004+70933-008667FM-12+0009ENJA V0203501N01231000301CN0005001N9-00251-00261097661ADDAA199007091AG10001AY171061AY231061GA1091+999999999GF109991091999999999999999KA1120N-00251MD1310021+9999MW1731OA149902421REMSYN017333   21025 91147
0088010010999991990020409004+70933-008667FM-12+0009ENJA V0203401N01541000301CN0005001N9-00271-00281097701ADDAG12001AY181031AY231031GA1091+999999999GF109991091999999999999999MD1210041+9999MW1861
0134010010999991990020412004+70933-008667FM-12+0009ENJA V0203301N01751004201CN0030001N9-00241-00251097691ADDAA106005091AG10000AY181061AY231061GF106991061051004501041999MD1810011+9999MW1851OA149902321SA1-0059REMSYN023222// 01005 333   91145
0072010010999991990020415004+70933-008667FM-12+0009ENJA V0203401N01231002101CN0050001N9-00171-00181097731ADDAG12000AY181031AY231031GF108991071061002501999999MD1210041+9999MW1381
0133010010999991990020418004+70933-008667FM-12+0009ENJA V0203501N01291004201CN0050001N9-00161-00171097581ADDAA199009091AG10000AY181061AY231061GF107991071061004501999999KA1120M-00161MD1810151+9999MW1361OA149902161REMSYN017333   11016 91142
0072010010999991990020421004+70933-008667FM-12+0009ENJA V0203601N01231024001CN0100001N9-00171-00181097401ADDAG12000AY131031AY221031GF108991021061002501071999MD1710181+9999MW1361
0083010010999991990020500004+70933-008667FM-12+0009ENJA V0200101N00871024001CN0150001N9-00121-00131097211ADDAA106000091AG10000AY131061AY221061GF108991031061004501071999MD1710191+9999MW1361
0072010010999991990020503004+70933-008667FM-12+0009ENJA V0203401N00721024001CN0200001N9-00031-00041096841ADDAG11000AY131031AY221031GF106991021061008001071001MD1710371+9999MW1011
0133010010999991990020506004+70933-008667FM-12+0009ENJA V0200101N01391024001CN0200001N9-00091-00101096521ADDAA106000091AG10000AY131061AY221061GF107991041061004501071001KA1120N-00171MD1710321+9999MW1361OA149902111REMSYN017333   21017 91141
0072010010999991990020509004+70933-008667FM-12+0009ENJA V0200101N01441004201CN0150001N9-00071-00081096321ADDAG12000AY131031AY221031GF108991061061004501071999MD1610191+9999MW1361
0134010010999991990020512004+70933-008667FM-12+0009ENJA V0203601N01441009001CN0015001N9-00131-00141096271ADDAA106000591AG10000AY181061AY231061GF108991081081004501999999MD1510051+9999MW1851OA149902471SA1-0089REMSYN023222// 01008 333   91148
0088010010999991990020515004+70933-008667FM-12+0009ENJA V0203501N01441000301CN0005001N9-00171-00181096231ADDAG12000AY171031AY231031GA1091+999999999GF109991091999999999999999MD1810041+9999MW1711
0149010010999991990020518004+70933-008667FM-12+0009ENJA V0203501N01541000301CN0002001N9-00231-00241096221ADDAA199003091AG10000AY171061AY231061GA1091+999999999GF109991091999999999999999KA1120M+00031MD1710011+9999MW1711OA149902371REMSYN017333   10003 91146
0088010010999991990020521004+70933-008667FM-12+0009ENJA V0200201N01341000301CN0002001N9-00231-00241096211ADDAG12000AY171031AY231031GA1091+999999999GF109991091999999999999999MD1710011+9999MW1711
0099010010999991990020600004+70933-008667FM-12+0009ENJA V0203501N01341000601CN0006001N9-00271-00281096301ADDAA106005091AG10000AY171061AY231061GA1091+999999999GF109991091999999999999999MD1310091+9999MW1711
0072010010999991990020603004+70933-008667FM-12+0009ENJA V0203501N01391001201CN0008001N9-00351-00361096431ADDAG12000AY171031AY231031GF108991081061001501999999MD1210231+9999MW1381
0133010010999991990020606004+70933-008667FM-12+0009ENJA V0203601N01081001201CN0040001N9-00381-00391096601ADDAA199009091AG10000AY171061AY231061GF108991081061001501999999KA1120N-00391MD1210171+9999MW1711OA149902111REMSYN017333   21039 91141
0072010010999991990020609004+70933-008667FM-12+0009ENJA V0203501N01231002101CN0030001N9-00421-00431096861ADDAG12000AY171031AY231031GF108991081061002501999999MD1210261+9999MW1711
0050010010999991990020612004+70933-008667FM-12+0009ENJA V0203401N010319999999N0020001N9-00431-00441097221ADDAG12000GF108991999999002501999999MD1210361+9999
0072010010999991990020615004+70933-008667FM-12+0009ENJA V0203301N01641002101CN0015001N9-00471-00481097371ADDAG12000AY171031AY231031GF108991071061002501071999MD1210151+9999MW1701
0133010010999991990020618004+70933-008667FM-12+0009ENJA V0203201N01391002101CN0060001N9-00481-00491097601ADDAA199007091AG10000AY171061AY231061GF107991071051002501999999KA1120M-00381MD1310231+9999MW1361OA149902161REMSYN017333   11038 91142
0072010010999991990020621004+70933-008667FM-12+0009ENJA V0203201N00771002101CN0120001N9-00481-00511097821ADDAG12000AY171031AY231031GF107991071061002501999999MD1310221+9999MW1711
0072010010999991990020703004+70933-008667FM-12+0009ENJA V0203601N00621012001CN0300001N9-00481-00531097961ADDAG12000AY131031AY221031GF107991071081008001001001MD1110011+9999MW1361
0133010010999991990020706004+70933-008667FM-12+0009ENJA V0203601N00721009001CN0300001N9-00491-00541097891ADDAA199000591AG10000AY131061AY221061GF108991081081004501999999KA1120N-00511MD1810071+9999MW1361OA149900931REMSYN017333   21051 91118
0072010010999991990020709004+70933-008667FM-12+0009ENJA V0203601N00461004201CN0300001N9-00521-00581097891ADDAG12000AY131031AY221031GF108991081051004501999999MD1410001+9999MW1021
0111010010999991990020712004+70933-008667FM-12+0009ENJA V0200201N00671002101CN0250001N9-00541-00561097841ADDAA106000091AG10000AY131061AY221061GF108991081051002501999999MD1710051+9999MW1361SA1-0099REMSYN011222// 01009
0072010010999991990020715004+70933-008667FM-12+0009ENJA V0203601N00671002101CN0120001N9-00551-00611097801ADDAG12000AY171031AY231031GF108991081061002501999999MD1610041+9999MW1701
0133010010999991990020718004+70933-008667FM-12+0009ENJA V0203601N01081004201CN0250001N9-00531-00611097841ADDAA199000191AG10000AY171061AY231061GF108991081061004501999999KA1120M-00481MD1310041+9999MW1361OA149901601REMSYN017333   11048 91131
0072010010999991990020721004+70933-008667FM-12+0009ENJA V0203601N00931004201CN0250001N9-00551-00661097901ADDAG12000AY131031AY221031GF108991081061004501999999MD1210061+9999MW1701
0114010010999991990020800004+70933-008667FM-12+0009ENJA V0203601N00981004201CN0250001N9-00611-00791097991ADDAA106000191AG10000AY171061AY231061GF107991071061004501001001MD1210091+9999MW1701OA149901601REMSYN011333   91131
0050010010999991990020803004+70933-008667FM-12+0009ENJA V0203601N00771004201CN0250001N9-00671-00971098121ADDAG12000GF107991071061004501001001MD1210131+9999
0133010010999991990020806004+70933-008667FM-12+0009ENJA V0203601N00621007501CN0250001N9-00661-01021098151ADDAA199000191AG19000AY171061AY221061GF107991071051008001001001KA1120N-00671MD1110031+9999MW1021OA149901491REMSYN017333   21067 91129
0072010010999991990020809004+70933-008667FM-12+0009ENJA V0200101N00571007501CN0250001N9-00701-00991098281ADDAG12000AY171031AY221031GF107991071051008001001001MD1310131+9999MW1701
0134010010999991990020812004+70933-008667FM-12+0009ENJA V0200301N00511007501CN0250001N9-00701-00991098421ADDAA106999929AG19000AY171061AY221061GF107991071051008001001081MD1210141+9999MW1701OA149901081SA1-0139REMSYN023222// 01013 333   91121
0072010010999991990020815004+70933-008667FM-12+0009ENJA V0200201N00721007501CN0250001N9-00671-01011098481ADDAG12000AY171031AY221031GF108991081051008001999999MD1110061+9999MW1781
0133010010999991990020818004+70933-008667FM-12+0009ENJA V0203501N00151007501CN0200001N9-00681-01041098551ADDAA199999929AG10000AY171061AY221061GF108991081051008001999999KA1120M-00661MD1210071+9999MW1021OA149901081REMSYN017333   11066 91121
0072010010999991990020821004+70933-008667FM-12+0009ENJA V0201101N00051007501CN0200001N9-00651-00971098611ADDAG12000AY171031AY221031GF108991081051008001999999MD1210061+9999MW1701
0114010010999991990020900004+70933-008667FM-12+0009ENJA V0201001N00621007501CN0200001N9-00581-00841098651ADDAA106999929AG10000AY171061AY221061GF108991081051008001999999MD1210041+9999MW1781OA149901081REMSYN011333   91121
0072010010999991990020903004+70933-008667FM-12+0009ENJA V0200901N00671007501CN0200001N9-00591-00851098631ADDAG12000AY171031AY221031GF108991081051008001999999MD1810021+9999MW1781
0133010010999991990020906004+70933-008667FM-12+0009ENJA V0201001N01031007501CN0200001N9-00581-00661098551ADDAA199999929AG10000AY171061AY221061GF108991081051008001999999KA1120N-00681MD1710081+9999MW1781OA149901441REMSYN017333   21068 91128
0072010010999991990020909004+70933-008667FM-12+0009ENJA V0200801N01391007501CN0200001N9-00561-00621098421ADDAG12000AY171031AY221031GF108991081051008001999999MD1710131+9999MW1021
0134010010999991990020912004+70933-008667FM-12+0009ENJA V0200901N01391004201CN0030001N9-00461-00471098291ADDAA106999929AG10000AY171061AY221061GF108991081061004501999999MD1710131+9999MW1711OA149902061SA1-0159REMSYN023222// 01015 333   91140
0072010010999991990020915004+70933-008667FM-12+0009ENJA V0200901N01441004201CN0030001N9-00391-00421098071ADDAG12000AY171031AY231031GF108991081061004501999999MD1810181+9999MW1711
0149010010999991990020918004+70933-008667FM-12+0009ENJA V0200901N01341000151CN0001001N9-00301-00311097821ADDAA199001091AG10001AY171061AY231061GA1091+999999999GF109991091999999999999999KA1120M-00301MD1710251+9999MW1731OA149902061REMSYN017333   11030 91140
0088010010999991990020921004+70933-008667FM-12+0009ENJA V0200901N01231000151CN0001001N9-00201-00211097691ADDAG12001AY171031AY231031GA1091+999999999GF109991091999999999999999MD1610131+9999MW1731
0083010010999991990021000004+70933-008667FM-12+0009ENJA V0201001N00621004201CN0150001N9-00101-00111097601ADDAA106001091AG10000AY171061AY231061GF108991081061004501999999MD1710091+9999MW1221
0050010010999991990021003004+70933-008667FM-12+0009ENJA V0201301N00411007501CN0150001N9-00131-00141097601ADDAG12000GF107991071051008001999999MD1410001+9999
0111010010999991990021006004+70933-008667FM-12+0009ENJA V0202101N00261007501CN0150001N9-00141-00151097591ADDAA199001091AG10000GF108991081051008001999999KA1120N-00301MD1810011+9999OA149901131REMSYN017333   21030 91122
0050010010999991990021009004+70933-008667FM-12+0009ENJA V0209991C00001024001CN0150001N9-00191-00201097581ADDAG12000GF108991041061004501071999MD1710011+9999
0134010010999991990021012004+70933-008667FM-12+0009ENJA V0202001N00311004201CN0010001N9-00161-00171097581ADDAA106001091AG10001AY171061AY221061GF108991081071004501999999MD1410001+9999MW1731OA149900771SA1-0149REMSYN023222// 01014 333   91115
0072010010999991990021015004+70933-008667FM-12+0009ENJA V0201901N00511007501CN0200001N9-00211-00401097611ADDAG12000AY171031AY221031GF108991081051008001999999MD1310031+9999MW1021
0133010010999991990021018004+70933-008667FM-12+0009ENJA V0201801N00411007501CN0200001N9-00211-00311097631ADDAA199001091AG10000AY171061AY221061GF108991081051008001999999KA1120M-00141MD1210021+9999MW1021OA149900721REMSYN017333   11014 91114
0050010010999991990021021004+70933-008667FM-12+0009ENJA V0201301N00361007501CN0200001N9-00221-00321097711ADDAG12000GF108991081051008001999999MD1210081+9999
0083010010999991990021100004+70933-008667FM-12+0009ENJA V0200501N00101002101CN0080001N9-00291-00331097801ADDAA106000391AG10000AY171061AY221061GF107991071051002501999999MD1110091+9999MW1701
0072010010999991990021103004+70933-008667FM-12+0009ENJA V0201601N00051007501CN0100001N9-00311-00381097811ADDAG12000AY171031AY221031GF107991071051008001999999MD1110011+9999MW1021
0133010010999991990021106004+70933-008667FM-12+0009ENJA V0203501N00461012001CN0100001N9-00291-00401097811ADDAA199000391AG10000AY171061AY221061GF107991071051012501999999KA1120N-00351MD1410001+9999MW1021OA149900671REMSYN017333   21035 91113
0050010010999991990021109004+70933-008667FM-12+0009ENJA V0200401N00151007501CN0150001N9-00271-00571097861ADDAG12000GF107991071051008001999999MD1210051+9999
0061010010999991990021112004+70933-008667FM-12+0009ENJA V0200201N00311007501CN0200001N9-00201-00431097851ADDAA106000091AG14000GF107991061051008001071001MD1810011+9999
0050010010999991990021115004+70933-008667FM-12+0009ENJA V0200801N00511007501CN0300001N9-00051-00471097791ADDAG12000GF108991071051008001071999MD1710061+9999
0133010010999991990021118004+70933-008667FM-12+0009ENJA V0203601N00211004201CN0150001N9-00111-00251097651ADDAA199999929AG10000AY171061AY221061GF108991081061004501999999KA1120M-00031MD1610141+9999MW1771OA149901901REMSYN017333   11003 91137
0072010010999991990021121004+70933-008667FM-12+0009ENJA V0200801N00771002101CN0040001N9+00041+00001097721ADDAG12000AY171031AY221031GF108991081061002501999999MD1310071+9999MW1711
0114010010999991990021200004+70933-008667FM-12+0009ENJA V0200601N01031012001CN0200001N9+00161+00071097721ADDAA106000191AG10000AY171061AY221061GF108991081051012501999999MD1210011+9999MW1211OA149901601REMSYN011333   91131
0050010010999991990021203004+70933-008667FM-12+0009ENJA V0200701N01031024001CN0300001N9+00131-00021097781ADDAG12000GF108991011051008001071999MD1310061+9999
0111010010999991990021206004+70933-008667FM-12+0009ENJA V0200701N01291012001CN0300001N9+00101-00161097791ADDAA199000191AG10000GF108991081051012501999999KA1120N-00121MD1110011+9999OA149902161REMSYN017333   21012 91142
0050010010999991990021209004+70933-008667FM-12+0009ENJA V0200701N01291004201CN0150001N9+00151-00041097861ADDAG12000GF108991071051004501999999MD1210071+9999
0111010010999991990021212004+70933-008667FM-12+0009ENJA V0200601N01341002101CN0120001N9+00121+00061097901ADDAA106000191AG10001AY161061AY221061GF108991081061002501999999MD1210041+9999MW1611SA1-0069REMSYN011222// 01006
0072010010999991990021215004+70933-008667FM-12+0009ENJA V0200801N01181002101CN0120001N9+00121+00081097991ADDAG12001AY161031AY221031GF108991061061002501021999MD1210091+9999MW1611
0152010010999991990021218004+70933-008667FM-12+0009ENJA V0200801N01291004201CN0120001N9+00111+00081098171ADDAA199002091AG10000AY161061AY251061GF108991081061004501999999KA1120M+99999MD1310181+9999MW1511OA149902111REMSYN017333   11023 91141EQDQ01 -00232ATMX  
0072010010999991990021221004+70933-008667FM-12+0009ENJA V0200801N01131004201CN0120001N9+00141+00131098391ADDAG12000AY151031AY221031GF108991081061004501999999MD1310221+9999MW1021
0114010010999991990021300004+70933-008667FM-12+0009ENJA V0200801N01081004201CN0090001N9+00161+00131098511ADDAA106999929AG13000AY121061AY221061GF108991081061004501999999MD1110121+9999MW1101OA149902011REMSYN011333   91139
0072010010999991990021303004+70933-008667FM-12+0009ENJA V0200901N01131004201CN0050001N9+00151+00141098631ADDAG12000AY121031AY221031GF108991081061004501999999MD1210111+9999MW1101
0133010010999991990021306004+70933-008667FM-12+0009ENJA V0200901N01081004201CN0050001N9+00141+00021098711ADDAA199999929AG10000AY161061AY221061GF108991081061004501999999KA1120N+00091MD1210081+9999MW1601OA149901751REMSYN017333   20009 91134
0072010010999991990021309004+70933-008667FM-12+0009ENJA V0200901N01031004201CN0150001N9+00131+00101098781ADDAG12000AY161031AY221031GF107991071051004501001001MD1210081+9999MW1601
0134010010999991990021312004+70933-008667FM-12+0009ENJA V0200801N00931004201CN0200001N9+00161+00131098881ADDAA106000191AG10000AY161061AY221061GF108991081061004501999999MD1210101+9999MW1021OA149901651SA1-0069REMSYN023222// 01006 333   91132
0072010010999991990021315004+70933-008667FM-12+0009ENJA V0200801N01341004201CN0060001N9+00171+00141098961ADDAG12000AY161031AY221031GF108991081061004501999999MD1210081+9999MW1601
0133010010999991990021318004+70933-008667FM-12+0009ENJA V0200801N01291004201CN0050001N9+00191+00151099141ADDAA199000391AG19000AY161061AY221061GF107991071061004501999999KA1120M+00211MD1210191+9999MW1021OA149902061REMSYN017333   10021 91140
0050010010999991990021321004+70933-008667FM-12+0009ENJA V0200801N01231220001CN0200001N9+00201+00021099361ADDAG12000GF101991011061004501001001MD1210201+9999
0092010010999991990021400004+70933-008667FM-12+0009ENJA V0200801N01291024001CN0200001N9+00181+00031099551ADDAA106000091AG14000GF108991011061004501071999MD1210101+9999OA149902321REMSYN011333   91145
0050010010999991990021403004+70933-008667FM-12+0009ENJA V0200901N01291007501CN0200001N9+00191+00011099731ADDAG12000GF108991081051008001999999MD1210171+9999
0133010010999991990021406004+70933-008667FM-12+0009ENJA V0200801N01231007501CN0100001N9+00171+00041099891ADDAA106000091AG14000AY121061AY221061GF108991081051008001999999KA1120N+00141MD1210161+9999MW1101OA149902111REMSYN017333   20014 91141
0072010010999991990021409004+70933-008667FM-12+0009ENJA V0200801N01391007501CN0200001N9+00141+00021100191ADDAG12000AY121031AY221031GF107991071051008001999999MD1210301+9999MW1101
0112010010999991990021412004+70933-008667FM-12+0009ENJA V0200801N01341007501CN0200001N9+00091-00341100331ADDAA106000091AG14000GF105991051051008001001001MD1210141+9999OA149902261SA1-0039REMSYN023222// 01003 333   91144
0069010010999991990021415004+70933-008667FM-12+0009ENJA V0200801N01181007501CN0150001N9+99999+99999100501ADDAG12000GF106991999051008001001001MD1210171+9999EQDQ01+000052SCOTLC
0111010010999991990021418004+70933-008667FM-12+0009ENJA V0200601N00821220001CN0150001N9-00091-00291100661ADDAA106000091AG14000GF102991011061004501041001KA1120M+00191MD1210161+9999OA149902161REMSYN017333   10019 91142
0050010010999991990021421004+70933-008667FM-12+0009ENJA V0200601N00821220001CN0200001N9-00051-00211100791ADDAG12000GF102991011051004501041001MD1210131+9999
0061010010999991990021500004+70933-008667FM-12+0009ENJA V0200801N00721220001CN0250001N9-00081-00221100931ADDAA106000091AG14000GF101991011051012501001001MD1210141+9999
0050010010999991990021503004+70933-008667FM-12+0009ENJA V0200501N00871220001CN0250001N9-00141-00601101021ADDAG12000GF101991011051012501001001MD1210091+9999
0111010010999991990021506004+70933-008667FM-12+0009ENJA V0200601N01131220001CN0200001N9-00161-00391101041ADDAA106000091AG14000GF101991011051012501001001KA1120N-00181MD1210021+9999OA149902061REMSYN017333   21018 91140
0050010010999991990021509004+70933-008667FM-12+0009ENJA V0200901N00721220001CN0200001N9-00171-00401101151ADDAG12000GF101991011011008001001011MD1310111+9999
0112010010999991990021512004+70933-008667FM-12+0009ENJA V0200801N00931220001CN0300001N9-00161-00601101231ADDAA106000091AG14000GF102991011051008001041081MD1210081+9999OA149901901SA1-0079REMSYN023222// 01007 333   91137
0050010010999991990021515004+70933-008667FM-12+0009ENJA V0203601N00571220001CN0300001N9-00231-00581101231ADDAG12000GF102991011051008001001081MD1010001+9999
0111010010999991990021518004+70933-008667FM-12+0009ENJA V0203501N00571220001CN0300001N9-00311-00661101241ADDAA106000091AG14000GF102991011051008001001081KA1120M-00111MD1310011+9999OA149902011REMSYN017333   11011 91139
0050010010999991990021521004+70933-008667FM-12+0009ENJA V0201401N00671220001CN0300001N9-00321-00671101261ADDAG12000GF102991021051008001001001MD1210021+9999
0061010010999991990021600004+70933-008667FM-12+0009ENJA V0203501N00461220001CN0300001N9-00411-00821101251ADDAA106000091AG14000GF103991031051008001001001MD1510011+9999
0050010010999991990021603004+70933-008667FM-12+0009ENJA V0200201N00821220001CN0300001N9-00461-00831101171ADDAG12000GF103991031051008001001001MD1810081+9999
0111010010999991990021606004+70933-008667FM-12+0009ENJA V0200301N00571220001CN0400001N9-00481-00981101131ADDAA106000091AG14000GF102991021051008001001001KA1120N-00531MD1710041+9999OA149901291REMSYN017333   21053 91125
0072010010999991990021609004+70933-008667FM-12+0009ENJA V0200101N00621024001CN0100001N9-00471-00671101051ADDAG12000AY181031AY271031GF106991041091002501071001MD1710081+9999MW1851
0083010010999991990021612004+70933-008667FM-12+0009ENJA V0200201N00821220001CN0250001N9-00451-00931100911ADDAA106999929AG10000AY181061AY271061GF104991031091004501071001MD1710141+9999MW1261
0072010010999991990021615004+70933-008667FM-12+0009ENJA V0200201N01291024001CN0100001N9-00451-00761100721ADDAG12000AY181031AY271031GF106991041031002501071001MD1710191+9999MW1261
0152010010999991990021618004+70933-008667FM-12+0009ENJA V0203601N01391002101CN0015001N9-00331-00341100461ADDAA199003091AG10000AY181061AY271061GF108991081051002501999999KA1120M+99999MD1710241+9999MW1711OA149902061REMSYN017333   11054 91140EQDQ01 -00542ATMX  
0072010010999991990021621004+70933-008667FM-12+0009ENJA V0200101N013919999999N0150001N9-00251-00361100401ADDAG12000AY171031AY231031GF105991999999002501999999MD1610061+9999MW1361
0114010010999991990021700004+70933-008667FM-12+0009ENJA V0200201N01341220001CN0045001N9-00311-00461100261ADDAA106000391AG10000AY181061AY231061GF101991011081004501001001MD1710141+9999MW1381OA149902571REMSYN011333   91150
0072010010999991990021703004+70933-008667FM-12+0009ENJA V0200101N01231009001CN0045001N9-00341-00451100071ADDAG12000AY181031AY231031GF108991081081004501999999MD1710191+9999MW1381
0133010010999991990021706004+70933-008667FM-12+0009ENJA V0200101N01541009001CN0040001N9-00371-00491099831ADDAA199001091AG10000AY181061AY231061GF107991071081004501001001KA1120N-00401MD1810241+9999MW1381OA149902211REMSYN017333   21040 91143
0072010010999991990021709004+70933-008667FM-12+0009ENJA V0203601N01591006001CN0060001N9-00401-00541099631ADDAG12000AY131031AY221031GF106991051081002501071001MD1710201+9999MW1381
0072010010999991990021715004+70933-008667FM-12+0009ENJA V0200101N01641024001CN0600001N9-00391-00511099061ADDAG12000AY131031AY221031GF106991041011004501041061MD1710301+9999MW1381
0133010010999991990021718004+70933-008667FM-12+0009ENJA V0200201N01341004201CN0070001N9-00401-00501098691ADDAA106000091AG14000AY131061AY221061GF107991071061004501041001KA1120M-00311MD1710371+9999MW1381OA149902371REMSYN017333   11031 91146
0072010010999991990021721004+70933-008667FM-12+0009ENJA V0200201N01441012001CN0070001N9-00341-00471098361ADDAG12000AY131031AY221031GF108991081081008001999999MD1710331+9999MW1851
0114010010999991990021800004+70933-008667FM-12+0009ENJA V0200101N01291012001CN0050001N9-00341-00451098001ADDAA106999929AG10000AY181061AY231061GF107991061081008001071999MD1810471+9999MW1851OA149902571REMSYN011333   91150
0072010010999991990021803004+70933-008667FM-12+0009ENJA V0203601N01541012001CN0100001N9-00321-00391097621ADDAG12000AY181031AY231031GF107991061081008001071999MD1710381+9999MW1851
0133010010999991990021806004+70933-008667FM-12+0009ENJA V0203601N00931007501CN0100001N9-00161-00261097351ADDAA199999929AG10000AY181061AY231061GF107991071051008001999999KA1120N-00421MD1710271+9999MW1021OA149902571REMSYN017333   21042 91150
0050010010999991990021809004+70933-008667FM-12+0009ENJA V0200701N00931007501CN0300001N9-00031-00161097181ADDAG12000GF108991061071008001021999MD1610171+9999
0112010010999991990021812004+70933-008667FM-12+0009ENJA V0200301N00931007501CN0300001N9-00011-00071097091ADDAA106000091AG14000GF107991071051008001041001MD1610091+9999OA149901491SA1-0109REMSYN023222// 01010 333   91129
0072010010999991990021815004+70933-008667FM-12+0009ENJA V0200801N00671004201CN0300001N9+00041+00031097061ADDAG12000AY181031AY231031GF107991071091004501041001MD1610031+9999MW1261
0152010010999991990021818004+70933-008667FM-12+0009ENJA V0200601N00311024001CN0040001N9-00071-00381097151ADDAA199999929AG10000AY181061AY241061GF107991031061004501051041KA1120M+99999MD1310091+9999MW1101OA149901441REMSYN017333   11017 91128EQDQ01 -00172ATMX  
0072010010999991990021821004+70933-008667FM-12+0009ENJA V0200401N00211007501CN0100001N9-00011-00021097221ADDAG12000AY121031AY221031GF108991071051008001999999MD1210071+9999MW1101
0114010010999991990021900004+70933-008667FM-12+0009ENJA V0200101N01031024001CN0050001N9-00101-00111097241ADDAA106000091AG14000AY121061AY221061GF108991041051008001071999MD1110021+9999MW1101OA149901341REMSYN011333   91126
0072010010999991990021903004+70933-008667FM-12+0009ENJA V0200101N00511012001CN0020001N9-00061-00071097311ADDAG12000AY121031AY221031GF108991081081008001999999MD1210071+9999MW1851
0133010010999991990021906004+70933-008667FM-12+0009ENJA V0200601N00101012001CN0100001N9-00041-00051097341ADDAA199000591AG10000AY181061AY221061GF108991081081008001999999KA1120N-00211MD1110031+9999MW1101OA149901491REMSYN017333   21021 91129
0072010010999991990021909004+70933-008667FM-12+0009ENJA V0203501N00101012001CN0150001N9-00091-00101097401ADDAG12000AY121031AY221031GF107991061081008001071999MD1210061+9999MW1101
0134010010999991990021912004+70933-008667FM-12+0009ENJA V0200201N00511009001CN0100001N9-00101-00111097381ADDAA106999929AG10000AY181061AY221061GF107991071081004501051999MD1810021+9999MW1851OA149901181SA1-0089REMSYN023222// 01008 333   91123
0072010010999991990021915004+70933-008667FM-12+0009ENJA V0209991C00001002101CN0030001N9-00121-00131097281ADDAG12000AY181031AY221031GF108991071061002501999999MD1710101+9999MW1851
0133010010999991990021918004+70933-008667FM-12+0009ENJA V0200101N00361007501CN0100001N9-00101-00111097121ADDAA199000191AG10000AY181061AY221061GF107991071051008001001001KA1120M+00001MD1810161+9999MW1101OA149900721REMSYN017333   11000 91114
0072010010999991990021921004+70933-008667FM-12+0009ENJA V0203601N00981007501CN0050001N9-00121-00131096901ADDAG12000AY121031AY221031GF108991081051008001999999MD1710221+9999MW1101
0083010010999991990022000004+70933-008667FM-12+0009ENJA V0200201N01641002101CN0050001N9-00191-00201096651ADDAA106000091AG14000AY131061AY221061GF108991081061002501999999MD1710251+9999MW1361
0083010010999991990022001004+70933-008667FM-12+0009ENJA V0209999999999002101CN0050001N9-00191-00201096651ADDAA106000091AG10999AY131011AY221011GF108991081061002501999999MD1710251+9999MW1361
0088010010999991990022003004+70933-008667FM-12+0009ENJA V0200201N01641000301CN0003001N9-00291-00301096501ADDAG12000AY131031AY221031GA1091+999999999GF109991091999999999999999MD1710151+9999MW1361
0149010010999991990022006004+70933-008667FM-12+0009ENJA V0203601N01751000301CN0004001N9-00401-00411096591ADDAA106000091AG14000AY131061AY221061GA1091+999999999GF109991091999999999999999KA1120N-00411MD1310091+9999MW1371OA149902831REMSYN017333   21041 91155
0072010010999991990022009004+70933-008667FM-12+0009ENJA V0203601N01491002101CN0015001N9-00461-00471096651ADDAG12000AY131031AY221031GF108991081061002501999999MD1210051+9999MW1361
0134010010999991990022012004+70933-008667FM-12+0009ENJA V0203501N01541002101CN0030001N9-00511-00571096771ADDAA106000091AG14000AY131061AY221061GF108991081061002501999999MD1310121+9999MW1361OA149902471SA1-0099REMSYN023222// 01009 333   91148
0072010010999991990022015004+70933-008667FM-12+0009ENJA V0203501N01641002101CN0030001N9-00551-00641096871ADDAG12000AY131031AY221031GF108991081061002501999999MD1210101+9999MW1361
0133010010999991990022018004+70933-008667FM-12+0009ENJA V0203501N01231002101CN0045001N9-00521-00661097061ADDAA106000091AG14000AY131061AY221061GF108991081061002501999999KA1120M-00391MD1210191+9999MW1361OA149902631REMSYN017333   11039 91151
0072010010999991990022021004+70933-008667FM-12+0009ENJA V0203501N00981004201CN0100001N9-00481-00721097361ADDAG12000AY131031AY221031GF108991081051004501999999MD1210301+9999MW1021
0083010010999991990022100004+70933-008667FM-12+0009ENJA V0203401N00571004201CN0080001N9-00431-00881097621ADDAA106999929AG10000AY171061AY231061GF108991081061004501999999MD1310261+9999MW1711
0072010010999991990022103004+70933-008667FM-12+0009ENJA V0202801N00461220001CN0100001N9-00371-00931097801ADDAG12000AY171031AY211031GF102991021021008001001001MD1210181+9999MW1021
0133010010999991990022106004+70933-008667FM-12+0009ENJA V0202301N00211220001CN0150001N9-00451-00971097971ADDAA199999929AG10000AY171061AY211061GF104991041021008001001001KA1120N-00541MD1310171+9999MW1021OA149901391REMSYN017333   21054 91127
0050010010999991990022109004+70933-008667FM-12+0009ENJA V0202501N00511007501CN0250001N9-00391-00931098091ADDAG12000GF105991051051008001001001MD1210121+9999
0061010010999991990022112004+70933-008667FM-12+0009ENJA V0202601N00411220001CN0300001N9-00331-00891098271ADDAA106000091AG14000GF105991041021008001001011MD1210181+9999
0050010010999991990022115004+70933-008667FM-12+0009ENJA V0202601N00361024001CN0300001N9-00341-00841098381ADDAG12000GF105991031021008001051011MD1210111+9999
0142010010999991990022118004+70933-008667FM-12+0009ENJA V0202401N00411007501CN0500001N9-00371-00851098451ADDAA106000091AG14000GF106991061051008001001011KA1120M-00221KA2120N-00461MD1310071+9999OA159900931REMSYN035333   11022 91118 555   03418 21046
0081010010999991990022121004+70933-008667FM-12+0009ENJA V0202601N00311220001CN0100001N9-00401-00901098491ADDAG12000GF102991021021008001001001MD1110041+9999OA159900461REMSYN011555   03309
0092010010999991990022200004+70933-008667FM-12+0009ENJA V0209991V00101220001CN0400001N9-00421-00871098581ADDAA106000091AG14000GF103991031021008001001001MD1310091+9999OA149901131REMSYN011333   91122
0050010010999991990022203004+70933-008667FM-12+0009ENJA V0200301N00261220001CN0400001N9-00451-00841098671ADDAG12000GF103991031021008001001001MD1210091+9999
0111010010999991990022206004+70933-008667FM-12+0009ENJA V0203501N00771007501CN0300001N9-00331-00551098711ADDAA106000091AG14000GF108991081051008001999999KA1120N-00501MD1110041+9999OA149901181REMSYN017333   21050 91123
0050010010999991990022209004+70933-008667FM-12+0009ENJA V0200101N00771007501CN0500001N9-00401-00661098881ADDAG12000GF108991081051008001999999MD1210171+9999
0089010010999991990022212004+70933-008667FM-12+0009ENJA V0203401N01031004201CN0200001N9-00381-00701098991ADDAA106000091AG14000GF108991071051004501999999MD1010111+9999SA1-0089REMSYN011222// 01008
0050010010999991990022215004+70933-008667FM-12+0009ENJA V0203301N00621009001CN0150001N9-00401-00601099091ADDAG12000GF108991081081004501999999MD1210101+9999
0133010010999991990022218004+70933-008667FM-12+0009ENJA V0203501N00721012001CN0100001N9-00431-00601099081ADDAA199000191AG10000AY171061AY221061GF108991081081008001999999KA1120M-00331MD1810011+9999MW1851OA149901801REMSYN017333   11033 91135
0072010010999991990022221004+70933-008667FM-12+0009ENJA V0203401N00671012001CN0300001N9-00441-00731099061ADDAG12000AY181031AY221031GF108991081081008001999999MD1710021+9999MW1021
0114010010999991990022300004+70933-008667FM-12+0009ENJA V0203501N00721009001CN0200001N9-00511-00671099021ADDAA106999929AG10000AY181061AY221061GF108991071081004501999999MD1710041+9999MW1851OA149901441REMSYN011333   91128
0072010010999991990022303004+70933-008667FM-12+0009ENJA V0203601N00621004201CN0080001N9-00541-00701098981ADDAG12000AY171031AY221031GF108991071061004501999999MD1710041+9999MW1701
0133010010999991990022306004+70933-008667FM-12+0009ENJA V0203401N00621004201CN0080001N9-00581-00741098891ADDAA199999929AG10000AY171061AY221061GF108991081061004501999999KA1120N-00591MD1710081+9999MW1701OA149901341REMSYN017333   21059 91126
0072010010999991990022309004+70933-008667FM-12+0009ENJA V0200101N00411004201CN0080001N9-00521-00631098861ADDAG12000AY171031AY231031GF108991081061004501999999MD1710041+9999MW1701
0134010010999991990022312004+70933-008667FM-12+0009ENJA V0203501N00621009001CN0080001N9-00441-00481098811ADDAA106000191AG10000AY171061AY231061GF108991081081004501999999MD1710051+9999MW1701OA149901081SA1-0089REMSYN023222// 01008 333   91121
0072010010999991990022315004+70933-008667FM-12+0009ENJA V0203601N00871009001CN0080001N9-00461-00611098741ADDAG12000AY181031AY231031GF107991071081004501001001MD1710071+9999MW1851
0151010010999991990022318004+70933-008667FM-12+0009ENJA V0203401N00871009001CN0080001N9-00501+99999098811ADDAA199000391AG10000AY181061AY231061GF107991071081004501001001KA1120M-00401MD1310071+9999MW1851OA149901541REMSYN017333   11040 91130SYN012RJCT41  1864
0072010010999991990022321004+70933-008667FM-12+0009ENJA V0203601N00721009001CN0100001N9-00561-00821098961ADDAG12000AY181031AY221031GF107991071081004501001001MD1210151+9999MW1851
0114010010999991990022400004+70933-008667FM-12+0009ENJA V0203301N00821009001CN0060001N9-00541-00781099111ADDAA106000191AG10000AY181061AY231061GF108991081081004501999999MD1210151+9999MW1851OA149901541REMSYN011333   91130
0072010010999991990022403004+70933-008667FM-12+0009ENJA V0203301N00931009001CN0030001N9-00581-00661099211ADDAG12000AY181031AY231031GF108991081081004501999999MD1110101+9999MW1851
0133010010999991990022406004+70933-008667FM-12+0009ENJA V0203001N00461012001CN0060001N9-00581-00741099301ADDAA199000391AG10000AY181061AY231061GF108991081081008001999999KA1120N-00601MD1210091+9999MW1851OA149901901REMSYN017333   21060 91137
0072010010999991990022409004+70933-008667FM-12+0009ENJA V0202901N00571012001CN0150001N9-00591-00851099311ADDAG12000AY181031AY221031GF106991061081008001001001MD1210111+9999MW1021
0134010010999991990022412004+70933-008667FM-12+0009ENJA V0202901N00211012001CN0200001N9-00611-00991099471ADDAA106999929AG10000AY181061AY221061GF106991051081008001041001MD1210061+9999MW1021OA149901081SA1-0109REMSYN023222// 01010 333   91121
0050010010999991990022415004+70933-008667FM-12+0009ENJA V0203201N00311220001CN0300001N9-00741-00971099481ADDAG12000GF102991021051012501001001MD1110011+9999
0133010010999991990022418004+70933-008667FM-12+0009ENJA V0202701N00361060001CN0100001N9-00741-00861099391ADDAA199999929AG10000AY171061AY211061GF105991011021008001051041KA1120M-00491MD1810091+9999MW1031OA149900411REMSYN017333   11049 91108
0050010010999991990022421004+70933-008667FM-12+0009ENJA V0202901N00101220001CN0300001N9-00801-00861099321ADDAG12000GF101991011001017501041001MD1710071+9999
0061010010999991990022500004+70933-008667FM-12+0009ENJA V0203601N00461220001CN0300001N9-00631-00701099221ADDAA106000091AG14000GF101991011001017501041001MD1710101+9999
0050010010999991990022503004+70933-008667FM-12+0009ENJA V0200101N00771220001CN0300001N9-00631-00701099081ADDAG12000GF101991011001017501041001MD1710141+9999
0111010010999991990022506004+70933-008667FM-12+0009ENJA V0200101N00771220001CN0260001N9-00671-00751098921ADDAA106000091AG14000GF103991021021012501041001KA1120N-00891MD1710161+9999OA149901241REMSYN017333   21089 91124
0050010010999991990022509004+70933-008667FM-12+0009ENJA V0203501N00821021001CN0300001N9-00641-00821098801ADDAG12000GF107991071001022501071001MD1610121+9999
0134010010999991990022512004+70933-008667FM-12+0009ENJA V0203501N01131007501CN0150001N9-00631-00671098601ADDAA106000091AG14000AY131061AY221061GF108991061051008001071999MD1810201+9999MW1361OA149901601SA1-0119REMSYN023222// 01011 333   91131
0050010010999991990022515004+70933-008667FM-12+0009ENJA V0203501N00571024001CN0300001N9-00331-00551098391ADDAG12000GF108991021051008001071999MD1710211+9999
0133010010999991990022518004+70933-008667FM-12+0009ENJA V0200901N01291002101CN0025001N9-00331-00401098211ADDAA106000091AG14000AY141061AY221061GF108991081061002501999999KA1120M-00261MD1710181+9999MW1101OA149902261REMSYN017333   11026 91144
0050010010999991990022521004+70933-008667FM-12+0009ENJA V0200201N00721007501CN0200001N9-00291-00631098041ADDAG12000GF108991081051008001999999MD1710171+9999
0061010010999991990022600004+70933-008667FM-12+0009ENJA V0200801N00821007501CN0150001N9-00271-00631097821ADDAA106000091AG14000GF108991081051008001999999MD1710221+9999
0072010010999991990022603004+70933-008667FM-12+0009ENJA V0200901N01701220001CN0080001N9-00331-00501097651ADDAG12000AY131031AY211031GF103991031051008001001001MD1710171+9999MW1361
0133010010999991990022606004+70933-008667FM-12+0009ENJA V0200101N00931220001CN0200001N9-00341-00721097541ADDAA199999929AG10000AY171061AY231061GF104991041051008001001001KA1120N-00371MD1610111+9999MW1781OA149902931REMSYN017333   21037 91157
0072010010999991990022609004+70933-008667FM-12+0009ENJA V0200301N01701002101CN0015001N9-00441-00551097491ADDAG12000AY131031AY221031GF107991051061002501001051MD1710051+9999MW1361
0099010010999991990022612004+70933-008667FM-12+0009ENJA V0200301N02161000301CN0002001N9-00531-00561097531ADDAA106000391AG10000AY171061AY231061GA1091+999999999GF109991091999999999999999MD1310041+9999MW1391
0072010010999991990022615004+70933-008667FM-12+0009ENJA V0200201N02061024001CN0007001N9-00531-00691097571ADDAG12000AY171031AY231031GF108991041061002501071999MD1210041+9999MW1361
0133010010999991990022618004+70933-008667FM-12+0009ENJA V0200201N02421001201CN0060001N9-00581-00761097601ADDAA199000391AG10000AY171061AY231061GF108991051071001501071999KA1120M-00301MD1210031+9999MW1361OA149903351REMSYN017333   11030 91165
0072010010999991990022621004+70933-008667FM-12+0009ENJA V0200101N02111007501CN0080001N9-00651-00901097821ADDAG12000AY131031AY221031GF108991081051008001999999MD1310221+9999MW1361
0114010010999991990022700004+70933-008667FM-12+0009ENJA V0200101N02211007501CN0080001N9-00711-00941097911ADDAA106000191AG10000AY171061AY231061GF108991081071008001999999MD1110091+9999MW1711OA149903651REMSYN011333   91171
0072010010999991990022703004+70933-008667FM-12+0009ENJA V0200301N01951007501CN0080001N9-00741-00991098121ADDAG12000AY171031AY231031GF108991081071008001999999MD1210211+9999MW1711
0133010010999991990022706004+70933-008667FM-12+0009ENJA V0200301N01641012001CN0050001N9-00781-00941098301ADDAA199000391AG10000AY181061AY271061GF106991061081008001001001KA1120N-00821MD1210181+9999MW1851OA149903091REMSYN017333   21082 91160
0072010010999991990022709004+70933-008667FM-12+0009ENJA V0203601N01541002101CN0100001N9-00791-01081098501ADDAG12000AY181031AY231031GF107991061061002501071001MD1210201+9999MW1361
0111010010999991990022712004+70933-008667FM-12+0009ENJA V0200301N01441002101CN0150001N9-00821-01041098661ADDAA106999929AG10000AY181061AY231061GF106991061091002501001001MD1210161+9999MW1851SA1-0179REMSYN011222// 01017
0072010010999991990022715004+70933-008667FM-12+0009ENJA V0200101N01181004201CN0250001N9-00821-01201098791ADDAG12000AY181031AY231031GF107991071091004501001001MD1310131+9999MW1361
0111010010999991990022718004+70933-008667FM-12+0009ENJA V0200301N01441002101CN0150001N9-00821-01041098661ADDAA106999929AG10000AY181061AY231061GF106991061091002501001001MD1210161+9999MW1851SA1-0179REMSYN011222// 01017
0072010010999991990022721004+70933-008667FM-12+0009ENJA V0203601N01231007501CN0300001N9-00851-01211098931ADDAG12000AY131031AY221031GF107991071091008001001001MD1110051+9999MW1361
0114010010999991990022800004+70933-008667FM-12+0009ENJA V0200301N01031007501CN0040001N9-00831-00951098941ADDAA106000191AG10001AY181061AY231061GF108991081091008001999999MD1110011+9999MW1861OA149902061REMSYN011333   91140
0072010010999991990022803004+70933-008667FM-12+0009ENJA V0200301N00931007501CN0045001N9-00871-01001098961ADDAG12000AY181031AY231031GF107991071091008001999999MD1110021+9999MW1851
0133010010999991990022806004+70933-008667FM-12+0009ENJA V0200301N01291007501CN0045001N9-00841-00891099011ADDAA199000391AG10000AY181061AY231061GF108991071091008001999999KA1120N-00931MD1210051+9999MW1851OA149902261REMSYN017333   21093 91144
0072010010999991990022809004+70933-008667FM-12+0009ENJA V0200201N01491007501CN0060001N9-00821-01311099111ADDAG12000AY181031AY231031GF108991071091008001999999MD1310101+9999MW1261
0134010010999991990022812004+70933-008667FM-12+0009ENJA V0200501N01291007501CN0010001N9-00971-01001099221ADDAA106000191AG10000AY181061AY231061GF108991081091008001999999MD1210111+9999MW1851OA149902161SA1-0169REMSYN023222// 01016 333   91142
0072010010999991990022815004+70933-008667FM-12+0009ENJA V0200201N01181012001CN9999999N9-00971-01351099381ADDAG12000AY181031AY231031GF108991081081008001999999MD1310161+9999MW1261
0133010010999991990022818004+70933-008667FM-12+0009ENJA V0203601N01081012001CN0150001N9-01001-01591099491ADDAA199000391AG10000AY181061AY231061GF107991061081008001051001KA1120M-00821MD1210111+9999MW1851OA149902061REMSYN017333   11082 91140
0072010010999991990022821004+70933-008667FM-12+0009ENJA V0200101N011319999999N0040001N9-01101-01441099621ADDAG12000AY181031AY231031GF105991041091008001999999MD1210131+9999MW1851
0114010010999991990030100004+70933-008667FM-12+0009ENJA V0200101N01081009001CN0050001N9-01151-01351099731ADDAA106000191AG10000AY181061AY231061GF108991081081004501999999MD1210111+9999MW1851OA149902011REMSYN011333   91139
0072010010999991990030103004+70933-008667FM-12+0009ENJA V0203601N01181220001CN0100001N9-01181-01571099871ADDAG12000AY181031AY231031GF104991041081004501001001MD1210141+9999MW1361
0168010010999991990030106004+70933-008667FM-12+0009ENJA V0203601N01131000301CN0003001N9-01201-01241100021ADDAA199000591AG10000AY181061AY231061GA1091+999999999GF109991091999999999999999KA1120N-01261MD1010151+9999MW1661OA149902061REMSYN017333   21126 91140EQDQ01+002152APC3  
0091010010999991990030109004+70933-008667FM-12+0009ENJA V0203301N01081009001CN0040001N9-01191-01351100251ADDAG12000AY181031AY231031GF107991999081004501001001MD1210231+9999MW1851EQDQ01+000052SCOTLC
0153010010999991990030112004+70933-008667FM-12+0009ENJA V0203401N01031009001CN0050001N9-01181-01751100451ADDAA106000191AG19000AY181061AY231061GF106991999081004501001001MD1210201+9999MW1851OA149902011SA1-0179REMSYN023222// 01017 333   91139EQDQ01+000052SCOTLC
0091010010999991990030115004+70933-008667FM-12+0009ENJA V0203101N00821009001CN0025001N9-01201-01631100501ADDAG12000AY181031AY231031GF106991999081004501001001MD1110151+9999MW1851EQDQ01+000052SCOTLC
0133010010999991990030118004+70933-008667FM-12+0009ENJA V0203501N00721009001CN0100001N9-01271-01611100711ADDAA199000391AG10000AY181061AY231061GF107991071081004501999999KA1120M-01101MD1210111+9999MW1101OA149901801REMSYN017333   11110 91135
0072010010999991990030121004+70933-008667FM-12+0009ENJA V0203501N00621009001CN0040001N9-01281-01451100831ADDAG12000AY181031AY221031GF108991081081004501999999MD1210121+9999MW1851
0072010010999991990030203004+70933-008667FM-12+0009ENJA V0203501N00511007501CN0150001N9-01271-01791100981ADDAG12000AY181031AY271031GF107991071061008001999999MD1210081+9999MW1701
0133010010999991990030206004+70933-008667FM-12+0009ENJA V0203301N00511007501CN0150001N9-01291-01921100981ADDAA199000391AG10000AY181061AY271061GF106991061051008001001001KA1120N-01311MD1410001+9999MW1221OA149901081REMSYN017333   21131 91121
0072010010999991990030209004+70933-008667FM-12+0009ENJA V0203501N00151007501CN0200001N9-01251-01781101061ADDAG12000AY121031AY221031GF107991051051008001041999MD1310081+9999MW1151
0134010010999991990030212004+70933-008667FM-12+0009ENJA V0209991V00101007501CN0200001N9-01181-01681101161ADDAA106000591AG10000AY181061AY221061GF106991061021008001001001MD1210091+9999MW1151OA149900821SA1-0169REMSYN023222// 01016 333   91116
0072010010999991990030215004+70933-008667FM-12+0009ENJA V0209991C00001007501CN0100001N9-01161-01361101201ADDAG12000AY181031AY221031GF106991061021008001001001MD1110041+9999MW1151
0050010010999991990030221004+70933-008667FM-12+0009ENJA V0202701N00261220001CN0300001N9-01391-01681101141ADDAG12000GF101991011021017501001001MD1710051+9999
0083010010999991990030300004+70933-008667FM-12+0009ENJA V0201601N00511220001CN0300001N9-00931-01281100911ADDAA106999929AG10000AY181061AY211061GF104991041021012501001001MD1810221+9999MW1021
0050010010999991990030303004+70933-008667FM-12+0009ENJA V0201501N00931220001CN0300001N9-00661-01101100471ADDAG12000GF103991031011012501001001MD1710441+9999
0133010010999991990030306004+70933-008667FM-12+0009ENJA V0201301N01291007501CN0200001N9-00391-00501099741ADDAA199999929AG10000AY171061AY231061GF108991081051008001999999KA1120N-01541MD1710731+9999MW1701OA149901851REMSYN017333   21154 91136
0088010010999991990030309004+70933-008667FM-12+0009ENJA V0201201N01541000301CN0003001N9-00311-00321098841ADDAG12000AY171031AY231031GA1091+999999999GF109991091999999999999999MD1710901+9999MW1701
0083010010999991990030312004+70933-008667FM-12+0009ENJA V0201101N01491002101CN0004001N9-00181-00191097891ADDAA106000591AG10000AY171061AY231061GF108991081051002501999999MD1710951+9999MW1701
0072010010999991990030315004+70933-008667FM-12+0009ENJA V0201001N01391002101CN0002001N9-00091-00101096901ADDAG12000AY171031AY231031GF108991081061002501999999MD1710991+9999MW1701
0149010010999991990030318004+70933-008667FM-12+0009ENJA V0202601N01181000301CN0004001N9-00361-00371096681ADDAA199005091AG10000AY171061AY231061GA1091+999999999GF109991091999999999999999KA1120M-00061MD1510221+9999MW1711OA149902571REMSYN017333   11006 91150
0072010010999991990030321004+70933-008667FM-12+0009ENJA V0202401N01181004201CN0035001N9-00641-00661096961ADDAG12000AY171031AY231031GF108991081061004501999999MD1210281+9999MW1361
0114010010999991990030400004+70933-008667FM-12+0009ENJA V0202601N00461007501CN0200001N9-00731-00921097131ADDAA106001091AG10000AY171061AY231061GF108991081061008001999999MD1110171+9999MW1701OA149902321REMSYN011333   91145
0072010010999991990030403004+70933-008667FM-12+0009ENJA V0202201N00771004201CN0010001N9-00651-00671096941ADDAG12000AY171031AY221031GF108991081061004501999999MD1210191+9999MW1721
0133010010999991990030406004+70933-008667FM-12+0009ENJA V0201401N00671007501CN0300001N9-00601-00681096671ADDAA199003091AG10000AY171061AY221061GF107991071061008001001001KA1120N-00781MD1710271+9999MW1221OA149901291REMSYN017333   21078 91125
0050010010999991990030409004+70933-008667FM-12+0009ENJA V0201301N00931002101CN0250001N9-00491-00571096711ADDAG12000GF107991061071002501071999MD1310041+9999
0111010010999991990030412004+70933-008667FM-12+0009ENJA V0200801N00931002101CN0300001N9-00491-00751097001ADDAA106999929AG10000AY171061AY221061GF108991081061002501999999MD1210291+9999MW1021SA1-0149REMSYN011222// 01014
0072010010999991990030415004+70933-008667FM-12+0009ENJA V0200601N01231004201CN0400001N9-00371-00671097241ADDAG12000AY181031AY231031GF107991051021004501071001MD1210241+9999MW1361
0133010010999991990030418004+70933-008667FM-12+0009ENJA V0200401N01591009001CN0004001N9-00321-00331097431ADDAA199000191AG10000AY181061AY231061GF108991081081004501999999KA1120M-00271MD1110191+9999MW1851OA149902421REMSYN017333   11027 91147
0072010010999991990030421004+70933-008667FM-12+0009ENJA V0200301N01441220001CN0080001N9-00371-00551097611ADDAG12000AY181031AY231031GF101991011021008001001001MD1210181+9999MW1381
0114010010999991990030500004+70933-008667FM-12+0009ENJA V0200301N01441012001CN0020001N9-00301-00481097891ADDAA106999929AG10000AY181061AY231061GF106991061081008001001001MD1210171+9999MW1371OA149902781REMSYN011333   91154
0149010010999991990030506004+70933-008667FM-12+0009ENJA V0200201N02061000151CN0001001N9-00501-00571098551ADDAA199999929AG10000AY181061AY231061GA1091+999999999GF109991091999999999999999KA1120N-00521MD1210401+9999MW1391OA149902881REMSYN017333   21052 91156
0088010010999991990030509004+70933-008667FM-12+0009ENJA V0200301N02311000151CN0001001N9-00681-00791098741ADDAG12000AY131031AY221031GA1091+999999999GF109991091999999999999999MD1110191+9999MW1391
0134010010999991990030512004+70933-008667FM-12+0009ENJA V0200101N01491012001CN0005001N9-00631-00791099121ADDAA106002091AG10000AY181061AY231061GF107991071081008001001001MD1310381+9999MW1851OA149903091SA1-0149REMSYN023222// 01014 333   91160
0072010010999991990030515004+70933-008667FM-12+0009ENJA V0200301N01231012001CN0120001N9-00671-01141099461ADDAG12000AY181031AY231031GF107991071081008001001001MD1210341+9999MW1851
0133010010999991990030518004+70933-008667FM-12+0009ENJA V0200201N01491009001CN0020001N9-00801-01081099631ADDAA199002091AG10000AY181061AY231061GF107991071081004501001001KA1120M-00491MD1210171+9999MW1851OA149902521REMSYN017333   11049 91149
